:1000000000000320D101000099FB000051FB00001B
:1000100051FB000051FB000051FB000051FB0000B0
:1000200051FB000051FB000051FB000099FB000058
:1000300099FB000051FB000005F5000009F60000E7
:1000400099FB000099FB000099FB000099FB000060
:1000500099FB000099FB000099FB000099FB000050
:1000600099FB000099FB000099FB000099FB000040
:1000700099FB000099FB000099FB000099FB000030
:1000800099FB000099FB000099FB000099FB000020
:1000900099FB000099FB000099FB000099FB000010
:1000A000A5EF0000B1EF000099FB000099FB0000F4
:1000B00099FB000099FB000099FB0000911F0100D3
:1000C00099FB0000BD20010099FB0000050801001C
:1000D00099FB0000E921010099FB000099FB000059
:1000E00099FB000099FB000099FB000099FB0000C0
:1000F00099FB000099FB000099FB000099FB0000B0
:1001000099FB000099FB000099FB000099FB00009F
:1001100099FB0000B10A010099FB000099FB000067
:1001200099FB000099FB000099FB000099FB00007F
:1001300099FB000099FB000099FB000099FB00006F
:10014000B9F2000099FB0000E122010099FB0000D8
:1001500099FB000099FB000099FB000099FB00004F
:1001600099FB000099FB0000BDEF000099FB000027
:1001700099FB000099FB000099FB000099FB00002F
:1001800099FB000099FB000099FB000099FB00001F
:1001900099FB000099FB0000D923010099FB0000A6
:1001A00099FB000099FB000099FB000099FB0000FF
:1001B00099FB000099FB000099FB000099FB0000EF
:1001C00099FB000099FB000099FB000099FB0000DF
:1001D0005C4B4CF2205210B51A804DF628121A8052
:1001E00000BF00BF0FF0DCFC574B4FF030621A60CD
:1001F000564A9A60564ADA60564B4FF470021A60BB
:10020000554B564A1A60564A136813F4807304D14A
:1002100054490B604FF4A8531360534B1A781107DD
:1002200003D51A7842F008021A70504B5049AA229E
:100230001A70504A504B8B4204D252F8040F43F8C4
:10024000040BF8E74D4B4E4900228B4202D243F893
:10025000042BFAE74B494C4A002352F8230041F89B
:1002600023000133742BF8D1484B494A802103F80D
:10027000011B9342FBD1474B424A1A60464B8A22EC
:100280001A70A3F5805324225A70A0221A709A790A
:100290009207FCD59A79D406FCD4404A937903F0AE
:1002A0000C03082BFAD13E4B60221A7002331A78E5
:1002B000802AFCD1394B01221A715D225A719A7938
:1002C0009006FCD59979354A4906FBD5354B364918
:1002D00019600021596020231370937903F00C03F7
:1002E0000C2BFAD1314B324A1A60324B324A1A6027
:1002F00000225A60072243F8042C304AC3F80C2D20
:1003000062B60FF085FF174B1B68DA0705D52C483E
:100310000FF04AFD2B4B2C4A1A602C4B1B785B06C6
:1003200009D5284C284B22689A4204D124480FF062
:100330003BFD0023236013F05DFF0FF037FC0FF04F
:1003400065FBFEE70E20054030800440823F04003C
:100350000100002B88ED00E0002008E0030000858C
:1003600010D0034014D0034002D0074000E0074003
:10037000F8B500209C65010040A8002000C00020C6
:10038000C42D0120009E00200000000000E400E0D9
:1003900064E400E008ED00E0005006400040064044
:1003A00001E007404480044000000602048004404D
:1003B000C010070014E000E01FBF02000000202072
:1003C000DE9DE45C1CE00340A5C3945A00F00740A6
:1003D000FFFFFFFFFFFFFFFFFFFFFFFFFFFFFFFF2D
:1003E000FFFFFFFFFFFFFFFFFFFFFFFFFFFFFFFF1D
:1003F000FFFFFFFFFFFFFFFFFFFFFFFFFFFFFFFF0D
:10040000FFFFFFFFFFFFFFFFFFFFFFFFDEF9FFFF23
:1004100010B5054C237833B9044B13B10448AFF33E
:1004200000800123237010BD00C0002000000000E8
:10043000A0650100084B10B51BB108490848AFF38F
:1004400000800848036803B910BD074B002BFBD0A0
:10045000BDE81040184700BF0000000004C00020A5
:10046000A0650100F8B500200000000010B50446AA
:100470000EF0DAFE204610BD002310B4114C41727C
:10048000026104600372C36041B1194600E0026971
:1004900042F82310427A01339A42F8DC0A4B1A6878
:1004A0000AB90CE01A465369002BFBD150610023B6
:1004B00043618380C38083725DF8044B704718608A
:1004C000F5E700BF245301002427012011490A68E1
:1004D000002310B4104C0460437203610372C360C4
:1004E0000AB914E01A465369002BFBD150610B493D
:1004F0000B4B0A88036001320023C2610A8043610A
:100500008380C380837283615DF8044B7047086009
:10051000EDE700BF242701202453010020270120FC
:10052000E05C0100F8B51E4F3E4604460FCE04F1D4
:1005300018050FC596E803003A4685E8030052F80F
:10054000180F3B46516804F1480203C253F8200FCC
:100550005968B3F808C004F15C0203C20023012506
:100560004FF0000E4FF07E56A2F800C007F12C01AC
:10057000C4F880E0A367E367C4F8843004F1B400F2
:100580004FF400722667A566E566656784F88850B3
:10059000C4F88930C4F88D300FF040FA2046F8BD19
:1005A00028530100704700BFF8B54FF4C8710546E5
:1005B0006D486E4C6E4F6F4E0EF006FD6E496F48E3
:1005C0006F4ADFF8F8E1C2614FF480438B61CB6181
:1005D0000B624B62A36144F6CC41E3612362636228
:1005E000002302244162448603620120DFF8D0C167
:1005F000CEF82410CEF81C20CEF82030AEF8320011
:100600007962DFF8C0E1FA617C863B625D4F71621E
:10061000F261336270865C4ECCF82410CCF81C205A
:10062000ACF83240CEF82410CEF81C20CCF82030A4
:10063000CEF82030AEF832007962FA617C863B62F7
:10064000524FDFF884C1DFF884E17162F2613362F6
:1006500070864F4E7962FA617C863B624D4FCCF8D2
:100660002410CCF81C20ACF83240CEF82410CCF882
:100670002030CEF81C20DFF858C17162F261CEF84C
:100680002030AEF832003362DFF848E17086424E27
:100690007962FA613B627886404FCCF82410CCF83E
:1006A0001C20ACF83240CEF82410CCF82030CEF824
:1006B0001C20AEF83240CEF82030347EDFF818E14E
:1006C000FA614FF080427962DFF810C13449CEF808
:1006D000242014EA00023B627886CEF818C0CEF8D7
:1006E0001C1028D1F38B326203B9F08344F001046B
:1006F00034762C4A2C492D4BD3614FF480300023A3
:100700004FF07E5401264B625386136250622C6375
:100710002E616C61AC658861C86172B6244A254956
:100720001376D16162B6022185F850302248BDE8C7
:10073000F8400EF061B831461A4641F8203F18469D
:1007400044FA02F313F0010F02F1010206D00B6824
:100750007F33DB090133984238BF1846082A01F17C
:100760000401EDD1F083C4E70002FF1F0CC6002096
:10077000CCDF002018E0002050E30020A4C60020B9
:10078000C09C8D026CC80020A4C8002028E1002075
:1007900060E10020CCC300201CCA0020E4C9002076
:1007A000306FA50D6CC60020ACE10020D9740400A8
:1007B00068DD00200000FF7F04D80020A8D90020B9
:1007C00088DC002014C2002090DB0020C8DB002061
:1007D00094C30020F4DC002030C800201016AC0DBB
:1007E000F0B507EE902AF8EE677A89B0044617EE66
:1007F000900A0D4613F06CF941EC100B11F07AFFE2
:10080000C4A3D3E9002351EC100B13F0DFFA13F06B
:100810008BFC94F8883006EE900A002B00F0B08034
:1008200094F88930002B40F07B81D4ED047A04EBFE
:100830008502F8EEE77A92ED2D7A67EE877AF5EE8B
:10084000C07AF1EE10FA00F1C0859FEDB46AF4EEC3
:10085000C67AF1EE10FA41F3AD80A54AA54BD361FB
:10086000D4ED055AD4ED0C7A94ED166A27EE257A6C
:1008700027EE277A67EE067AF5EEC07AF1EE10FAE7
:1008800001F184829FEDA57AF4EEC77AF1EE10FAB9
:1008900041F37F80984A974BD361D4ED1A7AF8EEF2
:1008A000E77AF5EEC07AF1EE10FA41F29D82B7EEEA
:1008B000007AF4EEC76AF1EE10FA41F30A808F4A2B
:1008C0009FED8F7A67EE877AFDEEE77A17EE903A22
:1008D000002B01F01E8072B68A49C8690A629042F4
:1008E00001F0F28480FAA2F6EFF300873F0101F1F4
:1008F000228396FBF3F3002B01F069834B62012303
:100900000B7662B6D4ED1E7AF8EEE77AF5EEC07A91
:10091000F1EE10FA41F2ED81B7EE007AF4EEC76A1B
:10092000F1EE10FA40F37986744A9FED757A67EE1E
:10093000877AFDEEE77A17EE903A002B00F08D866D
:1009400072B67149C8690A62904201F08B8480FADC
:10095000A2F6EFF300873F0101F1838296FBF3F3E8
:10096000002B01F011834B6201230B7662B6674BBB
:1009700084F889501B680193019BC4F89430B5E05A
:10098000D4ED047A04EB8502F8EEE77A92ED2D7A45
:1009900067EE877AF5EEC07AF1EE10FA00F1248264
:1009A0009FED5E6AF4EEC67AF1EE10FA00F36D8107
:1009B0009FED576A4F494E4A67EE867AFCEEE77A1A
:1009C00017EE903A8B42C2ED077A00F25F81D4EDC8
:1009D000055AD4ED0C7A94ED166A27EE257A27EEA7
:1009E000277A67EE067AF5EEC07AF1EE10FA00F19A
:1009F0002E829FED4A7AF4EEC77AF1EE10FA40F3B8
:100A000016823D4A3B4BD361D4ED1A7AF8EEE77A71
:100A1000F5EEC07AF1EE10FA40F2F981B7EE007A05
:100A2000F4EEC76AF1EE10FA40F30B83334A9FED00
:100A3000347A67EE877AFDEEE77A17EE903A002B6C
:100A400000F0EE8172B62F49CE690A62B24200F020
:100A5000B88586FAA2F0EFF300873F0100F12A8300
:100A600090FBF3F3002B00F01E834B6201230B7607
:100A700062B6D4ED1E7AF8EEE77AF5EEC07AF1EEC2
:100A800010FA40F2B481B7EE007AF4EEC76AF1EEE4
:100A900010FA40F3B582194A9FED197A67EE877A0A
:100AA000FDEEE77A17EE903A002B00F0A98172B6BE
:100AB0001549C8690A62904200F07E8580FAA2F664
:100AC000EFF300873F0100F1DD8296FBF3F3002B8B
:100AD00000F0E2824B6201230B7662B60B4B84F886
:100AE00089501B680093009BC4F8943009B0F0BD96
:100AF000A4C600200000FE7FA8D900200000FF7FD0
:100B00007978304244DE00201CC00020D427012028
:100B10004B24BE47422E609472601340A655AC46EB
:100B200094F88A30002B00F0B48094F88B30002BBE
:100B300040F0B681D4ED047A04EB8502F8EEE77A52
:100B400092ED2D7A67EE877AF5EEC07AF1EE10FA23
:100B500000F137841FED0F6AF4EEC67AF1EE10FA59
:100B600040F3E087BC4ABD4BD361D4ED055AD4EDC8
:100B70000C7A94ED166A27EE257A27EE277A67EE2F
:100B8000067AF5EEC07AF1EE10FA01F115819FEDCB
:100B9000C37AF4EEC77AF1EE10FA40F3B287B04AA6
:100BA000AE4BD361D4ED1A7AF8EEE77AF5EEC07A5F
:100BB000F1EE10FA41F2EF80B7EE007AF4EEC76A78
:100BC000F1EE10FA40F37B87A6499FEDA77A67EE16
:100BD000877AFDEEE77A17EE903A002B00F08987CE
:100BE00072B6A24AD0691162884201F0728380FA1B
:100BF000A1F6EFF300873F0101F1468196FBF3F385
:100C0000002B01F0C98153620123137662B6D4ED43
:100C10001E7AF8EEE77AF5EEC07AF1EE10FA41F2BC
:100C20009A80B7EE007AF4EEC76AF1EE10FA40F35C
:100C300002878C499FED8C7A67EE877AFDEEE77A22
:100C400017EE903A002B00F0108772B6884AD069F0
:100C50001162884201F0018380FAA1F6EFF3008768
:100C60003F0101F1C78196FBF3F3002B01F00481F2
:100C700053620123137662B67E4B84F88B501B6857
:100C80000393039BC4F89C3030E77B4A734BD361DA
:100C90009DE6D4ED047A04EB8502F8EEE77A92ED56
:100CA0002D7A67EE877AF5EEC07AF1EE10FA00F150
:100CB00090839FED7A6AF4EEC67AF1EE10FA40F373
:100CC0007F876E4A654BD361D4ED055AD4ED0C7A1B
:100CD00094ED166A27EE257A27EE277A67EE067AD4
:100CE000F5EEC07AF1EE10FA01F179809FED6B7AA2
:100CF000F4EEC77AF1EE10FA40F32587604A574BBD
:100D0000D361D4ED1A7AF8EEE77AF5EEC07AF1EE17
:100D100010FA41F20C80B7EE007AF4EEC76AF1EEF9
:100D200010FA40F318854F4A9FED4F7A67EE877AA5
:100D3000FDEEE77A17EE903A002B00F02C8572B6A4
:100D40005049C8690A62904201F0B98280FAA2F65D
:100D5000EFF300873F0101F1E38096FBF3F3002BF3
:100D600001F0A8804B6201230B7662B6D4ED1E7AA7
:100D7000F8EEE77AF5EEC07AF1EE10FA40F2CD87A0
:100D8000B7EE007AF4EEC76AF1EE10FA40F36D8424
:100D9000344A9FED357A67EE877AFDEEE77A17EEF3
:100DA000903A002B00F0818472B63749C8690A6214
:100DB000904201F05C8280FAA2F6EFF300873F01D7
:100DC00001F1F28096FBF3F3002B01F026814B62D8
:100DD00001230B7662B6274B84F88A501B68029376
:100DE000029BC4F8983081E6234AD361EFE5F7EE21
:100DF000007AF4EEE76AF1EE10FA40F3BB83194A89
:100E000072B6224B0021DA61197662B666E6F7EE19
:100E1000007AF4EEE76AF1EE10FA40F3BC83114A6F
:100E200072B61B4B0021DA61197662B621E69FED9E
:100E3000197A0A49184A67EE877AFCEEE77A17EEC4
:100E4000903A8B42C2ED077A3FF6DCADDCE5124BFF
:100E50000022DA61D8E500BF88DC00200000FE7FB8
:100E600014C200200000FF7F79783042DCC60020E9
:100E700030DF0020D4270120A4C60020CCDF0020D2
:100E800018E00020C8C000202CC900201CC0002091
:100E900044DE00204B24BE47A8D90020A655AC460E
:100EA00094F88C30002B40F02381D4ED047A04EBCD
:100EB0008502F8EEE77A92ED2D7A67EE877AF5EE05
:100EC000C07AF1EE10FA00F187821FED0C6AF4EEA1
:100ED000C67AF1EE10FA40F3B7867B4A7B4BD361BA
:100EE000D4ED055AD4ED0C7A94ED166A27EE257AE6
:100EF00027EE277A67EE067AF5EEC07AF1EE10FA61
:100F000000F1B3869FED797AF4EEC77AF1EE10FA2C
:100F100040F389866E4A6D4BD361D4ED1A7AF8EEB0
:100F2000E77AF5EEC07AF1EE10FA40F2C286B7EE3B
:100F3000007AF4EEC76AF1EE10FA40F35286654982
:100F40009FED657A67EE877AFDEEE77A17EE903AC5
:100F5000002B00F0608672B6604AD0691162884248
:100F600001F0948180FAA1F6EFF300873F0100F1D0
:100F7000658796FBF3F3002B01F021805362012378
:100F8000137662B6D4ED1E7AF8EEE77AF5EEC07A03
:100F9000F1EE10FA40F26E86B7EE007AF4EEC76A10
:100FA000F1EE10FA40F3C3844A499FED4B7A67EEA5
:100FB000877AFDEEE77A17EE903A002B00F0D184A5
:100FC00072B6474AD0691162884201F05A8180FAAC
:100FD000A1F6EFF300873F0101F1018096FBF3F3E7
:100FE000002B01F02A8053620123137662B63D4B39
:100FF00084F88C501B680493049BC4F8A03075E5FA
:10100000BFEE006AF4EEC66AF1EE10FA00F18984D0
:10101000DFED315A67EEA57AFDEEE77A17EE903AEA
:10102000002B41F0DB81F4EEC76AF1EE10FA3FF7D6
:10103000E6AEF4EEC66AF1EE10FA40F1A3822A4A57
:10104000DEE6BFEE006AF4EEC66AF1EE10FA00F1D9
:101050006B84DFED215A67EEA57AFDEEE77A17EE95
:10106000903A002B41F09281F4EEC76AF1EE10FA4B
:101070003FF7D5AEF4EEC66AF1EE10FA40F1938276
:10108000194ACDE65F1C022F91BF334692FBF3F65F
:1010900090FBF3F3F31A1AE59042ACBF4FF0FF3226
:1010A00001224A6217E5B242D4BF4FF0FF3201225B
:1010B0004A62DBE45F1C022F91BF034692FBF3F010
:1010C00096FBF3F3C31ACDE488DC00200000FE7F1A
:1010D00014C200200000FF7F79783042DCC6002077
:1010E00030DF0020D427012000000180A655AC4647
:1010F00094F88D20002A00F0B58094F88E20002A04
:1011000000F08E8194F88F20002A7FF4EFACD4EDAC
:10111000047A04EB8503F8EEE77A93ED2D7A67EE17
:10112000877AF5EEC07AF1EE10FA00F154861FEDE1
:10113000116AF4EEC67AF1EE10FA40F3AF84A84AD1
:10114000A84BD361D4ED055AD4ED0C7A94ED166A10
:1011500027EE257A27EE277A67EE067AF5EEC07A33
:10116000F1EE10FA00F1B6859FEDAC7AF4EEC77A95
:10117000F1EE10FA40F381849B4A9A4BD361D4ED8F
:101180001A7AF8EEE77AF5EEC07AF1EE10FA40F24C
:101190001886B7EE007AF4EEC76AF1EE10FA40F363
:1011A0002383924A9FED927A67EE877AFDEEE77A83
:1011B00017EE903A002B00F0378372B68D49C8695C
:1011C0000A62904201F0678080FAA2F6EFF300878E
:1011D0003F0100F1CE8696FBF3F3002B00F0398639
:1011E0004B6201230B7662B6D4ED1E7AF8EEE77AF5
:1011F000F5EEC07AF1EE10FA40F2A385B7EE007A70
:10120000F4EEC76AF1EE10FA40F37E82774A9FED62
:10121000787A67EE877AFDEEE77A17EE903A002B40
:1012200000F0928272B67449C8690A62904201F075
:101230003C8080FAA2F6EFF300873F0100F18E8632
:1012400096FBF3F3002B00F000874B6201230B7633
:1012500062B66A4B84F88F501B680793079BC4F8EB
:10126000AC3043E4D4ED047A04EB8503F8EEE77A7E
:1012700093ED2D7A67EE877AF5EEC07AF1EE10FAEB
:1012800000F19C809FED656AF4EEC67AF1EE10FAEB
:1012900040F3B1835A4A534BD361D4ED055AD4ED90
:1012A0000C7A94ED166A27EE257A27EE277A67EEF8
:1012B000067AF5EEC07AF1EE10FA00F1EC849FEDBB
:1012C000577AF4EEC77AF1EE10FA40F384834D4A70
:1012D000444BD361D4ED1A7AF8EEE77AF5EEC07A92
:1012E000F1EE10FA40F28A85B7EE007AF4EEC76AA2
:1012F000F1EE10FA40F3C6823C4A9FED3D7A67EE6C
:10130000877AFDEEE77A17EE903A002B00F0DA824A
:1013100072B63D49C8690A62904200F0CB8780FAF4
:10132000A2F6EFF300873F0100F1728596FBF3F31D
:10133000002B00F00B864B6201230B7662B6D4EDD6
:101340001E7AF8EEE77AF5EEC07AF1EE10FA40F286
:101350001385B7EE007AF4EEC76AF1EE10FA40F3A7
:10136000AC81224A9FED227A67EE877AFDEEE77A1A
:1013700017EE903A002B00F0C08172B62349C8697D
:101380000A62904200F08C8780FAA2F6EFF30087A1
:101390003F0100F1978596FBF3F3002B00F05D868B
:1013A0004B6201230B7662B6144B84F88D501B6898
:1013B0000593059BC4F8A430FFF798BB104BDA6186
:1013C0006BE7134AD361FFF7D0BB124AD361FFF733
:1013D00047BA114AD36177E40D4AD36180E500BF73
:1013E00028E100200000FE7F60E100200000FF7F78
:1013F00079783042B4C100206CC00020D42701208D
:101400006CC80020A4C80020E0D9002030C500200E
:1014100088DC0020A4C60020CCDF0020A655AC4606
:10142000D4ED047A04EB8503F8EEE77A93ED2D7A98
:1014300067EE877AF5EEC07AF1EE10FA00F13084AB
:101440001FED0A6AF4EEC67AF1EE10FA40F3E38279
:10145000D54AD64BD361D4ED055AD4ED0C7A94ED30
:10146000166A27EE257A27EE277A67EE067AF5EEDA
:10147000C07AF1EE10FA00F117849FEDCD7AF4EE08
:10148000C77AF1EE10FA40F37482CA4AC74BD361AF
:10149000D4ED1A7AF8EEE77AF5EEC07AF1EE10FAAA
:1014A00040F23184B7EE007AF4EEC76AF1EE10FA3A
:1014B00040F3C181C04A9FEDCB7A67EE877AFDEE9B
:1014C000E77A17EE903A002B00F0D58172B6BB494F
:1014D000C8690A62904200F0CF8680FAA2F6EFF364
:1014E00000873F0100F19F8496FBF3F3002B00F08F
:1014F0008C854B6201230B7662B6D4ED1E7AF8EE32
:10150000E77AF5EEC07AF1EE10FA40F2E883B7EE32
:10151000007AF4EEC76AF1EE10FA57DDA64A9FEDA5
:10152000B17A67EE877AFDEEE77A17EE903A002BF4
:101530006CD072B6A249C8690A62904200F0CE86A9
:1015400080FAA2F6EFF300873F0100F1A88496FB32
:10155000F3F3002B00F069854B6201230B7662B632
:10156000984B84F88E501B680693069BC4F8A830ED
:10157000FFF7BCBAFFEE007AF4EEE76AF1EE10FA7C
:101580003FF55DADDFED907A66EEA76AFDEEE67A97
:1015900017EE902A34E4FFEE007AF4EEE76AF1EEFB
:1015A00010FA3FF56DADDFED887A66EEA77AFDEEB5
:1015B000E77A17EE902A33E400230B7662B6FFF742
:1015C0008DBA00230B7662B6FFF753BABFEE006AFE
:1015D000F4EEC66AF1EE10FA00F1A386DFED815A4F
:1015E00067EEA57AFDEEE77A17EE903A002B40F011
:1015F0006D87F4EEC76AF1EE10FA00F37883F4EE2B
:10160000C66AF1EE10FA40F11E86704A72B66C4B53
:101610000021DA61197662B6A2E7BFEE006AF4EE45
:10162000C66AF1EE10FA00F16186DFED6E5A67EEE0
:10163000A57AFDEEE77A17EE903A002B40F0C486CB
:10164000F4EEC76AF1EE10FA00F35B83F4EEC66ABB
:10165000F1EE10FA40F1E5855C4A72B65C4B002170
:10166000DA61197662B6FFF782B9BFEE006AF4EE6E
:10167000C66AF1EE10FA00F14B86DFED5A5A67EEBA
:10168000A57AFDEEE77A17EE903A002B40F0EC8653
:10169000F4EEC76AF1EE10FA00F34783F4EEC66A7F
:1016A000F1EE10FA40F17885484A72B6494B0021B4
:1016B000DA61197662B6FFF78EBBBFEE006AF4EE10
:1016C000C66AF1EE10FA00F11786DFED465A67EEB2
:1016D000A57AFDEEE77A17EE903A002B40F09C8653
:1016E000F4EEC76AF1EE10FA00F34E83F4EEC66A28
:1016F000F1EE10FA40F12C85344A72B6364B0021D7
:10170000DA61197662B64FE6BFEE006AF4EEC66A99
:10171000F1EE10FA00F1FF85DFED325A67EEA57A9F
:10172000FDEEE77A17EE903A002B40F0BB86F4EE20
:10173000C76AF1EE10FA00F30C83F4EEC66AF1EE1C
:1017400010FA40F1BD84214A72B6244B0021DA61BF
:10175000197662B67DE5BFEE006AF4EEC66AF1EE78
:1017600010FA00F1C085DFED1F5A67EEA57AFDEE95
:10177000E77A17EE903A002B40F01C86F4EEC76A29
:10178000F1EE10FA00F3DB82F4EEC66AF1EE10FA25
:1017900040F173840D4A72B6114B0021DA6119765B
:1017A00062B6FFF7E3BA00BF90DB00200000FE7FC7
:1017B000A655AC46C8DB00200000FF7F08DF0020F4
:1017C000CCD80020D427012000FEFF4E000001806D
:1017D0001CC000202CC9002030C500206CC0002097
:1017E000C8C0002079783042BFEE006AF4EEC66AC5
:1017F000F1EE10FA00F189855FED065A67EEA57AE1
:10180000FDEEE77A17EE903A002B40F02386F4EED7
:10181000C76AF1EE10FA00F3DC82F4EEC66AF1EE6C
:1018200010FA40F15F84D04A72B6D04B0021DA61E1
:10183000197662B6D8E4BFEE006AF4EEC66AF1EE3D
:1018400010FA00F15F85DFEDCA5A67EEA57AFDEE6A
:10185000E77A17EE903A002B40F0F285F4EEC76A73
:10186000F1EE10FA00F35782F4EEC66AF1EE10FAC8
:1018700040F15C84BC4A72B6BE4B0021DA61197635
:1018800062B63AE6BFEE006AF4EEC66AF1EE10FA0E
:1018900000F15085DFEDB65A67EEA57AFDEEE77AE6
:1018A00017EE903A002B40F0F385F4EEC76AF1EEA4
:1018B00010FA00F3AB82F4EEC66AF1EE10FA40F1D2
:1018C0002384A94A72B6AC4B0021DA61197662B65C
:1018D00035E5BFEE006AF4EEC66AF1EE10FA00F1EB
:1018E0001D85DFEDA35A67EEA57AFDEEE77A17EEC8
:1018F000903A002B40F0E085F4EEC76AF1EE10FA62
:1019000000F37A82F4EEC66AF1EE10FA40F1328406
:10191000954A72B6994B0021DA61197662B6FEF7E4
:10192000F1BF914AFFF7B8B88F4AFFF780B8BFEE12
:10193000006AF4EEC66AF1EE10FA00F1E084DFED21
:101940008C5A67EEA57AFDEEE77A17EE903A002BF7
:1019500040F06C85F4EEC76AF1EE10FA40F3F584BE
:10196000874972B6874B0022D9611A7662B6FFF7B3
:101970003EBB9FED927A8449844A67EE877AFCEEFB
:10198000E77A17EE903A8B42C2ED077A3FF67EADCA
:101990007EE59FED8A7A7C497D4A67EE877AFCEE88
:1019A000E77A17EE903A8B42C2ED077A3EF673AFB4
:1019B000FEF773BF9FED816A7349764A67EE867AB8
:1019C000FCEEE77A17EE903A8B42C2ED077A7EF68C
:1019D00047AFFEF743BF9FED797A6B496E4A67EEDA
:1019E000877AFCEEE77A17EE903A8B42C2ED077ADF
:1019F0003FF66EAC6EE49FED716A6349674A67EE2D
:101A0000867AFCEEE77A17EE903A8B42C2ED077ABF
:101A10007FF643AC3FE49FED696A5B49604A67EE3D
:101A2000867AFCEEE77A17EE903A8B42C2ED077A9F
:101A30007FF611AD0DE5BFEE006AF4EEC66AF1EE79
:101A400010FA00F15684DFED4A5A67EEA57AFDEEF2
:101A5000E77A17EE903A002B40F0D484F4EEC76A90
:101A6000F1EE10FA40F37984454972B6454B0022F5
:101A7000D9611A7662B6FFF7FFB89FED507A4249F6
:101A8000484A67EE877AFCEEE77A17EE903A8B4287
:101A9000C2ED077A3FF671ABFFF771BB9FED476A66
:101AA0003949414A67EE867AFCEEE77A17EE903ABA
:101AB0008B42C2ED077A7FF645ABFFF741BBBFEE25
:101AC000006AF4EEC66AF1EE10FA00F12D84DFED43
:101AD000285A67EEA57AFDEEE77A17EE903A002BCA
:101AE00040F0FE84F4EEC76AF1EE10FA40F33E8453
:101AF000234972B62D4B0022D9611A7662B6FFF7E0
:101B000086B89FED2E7A2049294A67EE877AFCEE47
:101B1000E77A17EE903A8B42C2ED077A3FF640A87B
:101B2000FFF740B89FED256A1749224A67EE867A8B
:101B3000FCEEE77A17EE903A8B42C2ED077A7FF619
:101B400014A8FFF710B89FED1D7A0F491A4A67EEE7
:101B5000877AFCEEE77A17EE903A8B42C2ED077A6D
:101B60003FF6CDA8FFF7CDB800000180B4C100203A
:101B70007978304208DF0020E0D9002044DE0020E0
:101B80000000FF7F30DF00200000FE7FC8DB002068
:101B9000A8D90020A4C60020A4C800206CC800203A
:101BA00090DB002060E1002028E10020DCC600205E
:101BB00014C2002088DC002018E000204B24BE471F
:101BC0001FED026AC549C64A67EE867AFCEEE77ADF
:101BD00017EE903A8B42C2ED077A7FF675A8FFF7B1
:101BE00071B8BFEE006AF4EEC66AF1EE10FA00F1C9
:101BF0009E83DFEDBC5A67EEA57AFDEEE77A17EE1D
:101C0000903A002B40F03A84F4EEC76AF1EE10FAF5
:101C100040F39383B44972B6B44B0022D9611A766B
:101C200062B6FFF7AFB99FEDB27AAC49B14A67EE41
:101C3000877AFCEEE77A17EE903A8B42C2ED077A8C
:101C40003FF669A9FFF769B99FEDA96AA349AA4AB6
:101C500067EE867AFCEEE77A17EE903A8B42C2ED99
:101C6000077A7FF63DA9FFF739B9A24B0022DA6166
:101C7000FFF753B9F7EE007AF4EEE76AF1EE10FAE7
:101C800040F3A582984A72B69C4B0021DA6119761E
:101C900062B6FFF7ACB99A4B0022DA61FFF71ABBC4
:101CA000984BDA61FFF7D7BB974B0022DA61FFF759
:101CB000EFBBF7EE007AF4EEE76AF1EE10FA40F3CC
:101CC0009782894A72B6894B0021DA61197662B629
:101CD000FFF758B98D4B0022DA61FFF750BAF7EEE3
:101CE000007AF4EEE76AF1EE10FA40F3A4827E4A3D
:101CF0008CE4F7EE007AF4EEE76AF1EE10FA40F3C6
:101D00008882794AA9E4F7EE007AF4EEE76AF1EE08
:101D100010FA40F30382744AADE5F7EE007AF4EE70
:101D2000E76AF1EE10FA40F32F826F4ABDE4F7EE56
:101D3000007AF4EEE76AF1EE10FA40F396816A4A0F
:101D400029E5F7EE007AF4EEE76AF1EE10FA40F3D7
:101D5000AF81654AF8E4F7EE007AF4EEE76AF1EE57
:101D600010FA40F32382604A72B6644B0021DA61B4
:101D7000197662B6FEF780BFF7EE007AF4EEE76AF6
:101D8000F1EE10FA40F3DC81574AB6E4604B0022D2
:101D9000DA61FEF782BDF7EE007AF4EEE76AF1EE63
:101DA00010FA40F37481504A72B6504B0021DA6148
:101DB000197662B6FEF72BBF4E4B0022DA61FEF7B2
:101DC000F1BEF7EE007AF4EEE76AF1EE10FA40F3B6
:101DD0008181454A28E54F4BDA61FFF7B3B94E4B95
:101DE0000022DA61FEF78DBFF7EE007AF4EEE76AC3
:101DF000F1EE10FA40F3B6813B4A8AE5F7EE007A3D
:101E0000F4EEE76AF1EE10FA40F37681364A59E5CE
:101E10005F1C022F91BF334692FBF3F690FBF3F366
:101E2000F31AFFF785BA5F1C022F91BF334692FB6E
:101E3000F3F690FBF3F3F31AFFF758BB5F1C022F86
:101E400091BF334691FBF3F690FBF3F3F31AFFF7E0
:101E500092B89042ACBF4FF0FF3201224A62FFF7C6
:101E6000C0B95F1C022F91BF334692FBF3F690FB83
:101E7000F3F3F31AFEF774BD8842ACBF4FF0FF31A5
:101E800001215162FEF7F5BE5F1C022F91BF334660
:101E900091FBF3F690FBF3F3F31AFEF7B1BE5F1C70
:101EA000022F91BF334692FBF3F690FBF3F3F31A44
:101EB000FFF74FBB9042ACBF4FF0FF3201224A62A6
:101EC000FEF751BF5F1C022F91BF334692FBF3F622
:101ED00090FBF3F3F31AFFF760BA00BF0000FE7F38
:101EE000CCDF0020797830420000FF7FDCC6002084
:101EF0004B24BE4714C2002088DC002030DF0020C5
:101F0000A4C8002090DB0020C8DB002060E1002096
:101F1000A8D9002028E1002018E0002000FEFF4E94
:101F20005F1C022F91BF334692FBF3F690FBF3F355
:101F3000F31AFEF714BF5F1C022F91BF334692FBCA
:101F4000F3F690FBF3F3F31AFEF7D5BC9042ACBF67
:101F50004FF0FF3201224A62FFF7EEB95F1C022FF9
:101F600091BF334692FBF3F690FBF3F3F31AFFF7BE
:101F700069B95F1C022F91BF334692FBF3F690FBC9
:101F8000F3F3F31AFFF729B99042ACBF4FF0FF32D9
:101F900001224A62FEF7E8BC8842ACBF4FF0FF3135
:101FA00001215162FEF730BE5F1C022F91BF334604
:101FB00092FBF3F690FBF3F3F31AFEF705BF8842AA
:101FC000ACBF4FF0FF3101215162FEF7D8BF904204
:101FD000ACBF4FF0FF3201224A62FEF790BC5F1C9B
:101FE000022F91BF334691FBF3F690FBF3F3F31A04
:101FF000FEF7F6BF5F1C022F91BF334691FBF3F64D
:1020000090FBF3F3F31AFEF730BE9042ACBF4FF0F3
:10201000FF3201224A62FFF76DBA9042ACBF4FF027
:10202000FF3201224A62FEF7D3BE9042ACBF4FF0AE
:10203000FF3201224A62FFF790BA8842ACBF4FF0EC
:10204000FF3101215162FEF7CFBF9042ACBF4FF08C
:10205000FF3201224A62FFF7F9B89042ACBF4FF05D
:10206000FF3201224A62FFF79CB9FFEE007AF4EEDC
:10207000E76AF1EE10FA3FF58DAB5FED587A66EE48
:10208000A77AFDEEE77A17EE902AFFF784BBFFEE02
:10209000007AF4EEE76AF1EE10FA00F171815FED7B
:1020A000617A66EEA77AFDEEE77A17EE902A7BE674
:1020B000FFEE007AF4EEE76AF1EE10FA3FF543AB7B
:1020C0005FED6A7A66EEA76AFDEEE67A17EE902A71
:1020D000FFF73ABBFFEE007AF4EEE76AF1EE10FA92
:1020E0003FF5A1AB5FED737A66EEA77AFDEEE77A76
:1020F00017EE902AFFF798BBFFEE007AF4EEE76A3E
:10210000F1EE10FA3FF5DDAB5FED7C7A66EEA77A73
:10211000FDEEE77A17EE902AFFF7D4BBFFEE007AC8
:10212000F4EEE76AF1EE10FA3FF5A4AB5FED857AC5
:1021300066EEA77AFDEEE77A17EE902AFFF79BBBD3
:10214000FFEE007AF4EEE76AF1EE10FA3FF5D4AA5A
:102150005FED8E7A66EEA76AFDEEE67A17EE902ABC
:10216000FFF7CBBAFFEE007AF4EEE76AF1EE10FA71
:102170003FF5CEAB5FED977A66EEA77AFDEEE77A94
:1021800017EE902AFFF7C5BBFFEE007AF4EEE76A80
:10219000F1EE10FA3FF588AA5FEDA07A66EEA76A25
:1021A000FDEEE67A17EE902AFFF77FBAFFEE007A8F
:1021B000F4EEE76AF1EE10FA00F1E4805FEDA97A3F
:1021C00066EEA76AFDEEE67A17EE902ACCE5FFEE02
:1021D000007AF4EEE76AF1EE10FA00F1D5805FEDD7
:1021E000B17A66EEA76AFDEEE67A17EE902A4AE526
:1021F000FFEE007AF4EEE76AF1EE10FA00F1BE802D
:102200005FEDBA7A66EEA77AFDEEE77A17EE902ACE
:1022100058E5FFEE007AF4EEE76AF1EE10FA3FF5CA
:102220001BAA5FEDC27A66EEA76AFDEEE67A17EEAC
:10223000902AFFF712BAFFEE007AF4EEE76AF1EEA9
:1022400010FA3FF5E2A95FEDCB7A66EEA76AFDEEE4
:10225000E67A17EE902AFFF7D9B90023137662B613
:10226000FEF70ABD00230B7662B6FEF780BB0023A3
:102270000B7662B6FEF7AFBD00230B7662B6FFF7B2
:102280003CB90023137662B6FEF7B1BE0023137685
:1022900062B6FEF777BE00230B7662B6FEF7A4BFE8
:1022A00000230B7662B6FFF77FB800230B7662B689
:1022B000FEF7CFBF00230B7662B6FFF740B80023CE
:1022C0000B7662B6FEF752BD00230B7662B6FEF7C0
:1022D00019BB0023137662B6FEF799BC00230B7678
:1022E00062B6FFF73DB98D4AFEF71EBD8B4AFEF779
:1022F0001CBB8A49FEF79EBC884AFFF733B8874962
:10230000FEF753BE854AFFF7D6B8844AFEF74ABFA8
:10231000824AFEF73EBD814AFEF779BF7F4AFEF74B
:10232000CFBA7E4AFFF7FBB87C49FEF74EBC7B492B
:10233000FEF706BE794AFEF7E0BFF4EEC66AF1EE9C
:1023400010FA40F1D780754965E4F4EEC66AF1EE03
:1023500010FA4DD57149FFF704BBF4EEC66AF1EEF1
:1023600010FA40F1D1806D49FFF77FBBF4EEC66AE9
:10237000F1EE10FA14D56949FFF7BBBB674AA1E437
:10238000664A11E5654AEFE4644A7CE4DFED647A6D
:1023900066EEA77AFDEEE77A17EE902AFEF752BBBB
:1023A000DFED5F7A66EEA77AFDEEE77A17EE901A18
:1023B000FFF79FBBDFED5A7A66EEA77AFDEEE77A6C
:1023C00017EE902AFEF7BBBCDFED557A66EEA76AE2
:1023D000FDEEE67A17EE902AFEF7B2BADFED507AFC
:1023E00066EEA76AFDEEE67A17EE902AFEF75FBB6F
:1023F000DFED4B7A66EEA76AFDEEE67A17EE901AED
:10240000FFF7AFBADFED467A66EEA76AFDEEE67A31
:1024100017EE901AFEF719BCDFED417A66EEA76A57
:10242000FDEEE67A17EE902AFEF7A7BFDFED3C7AC5
:1024300066EEA76AFDEEE67A17EE901AFEF7C0BDCB
:10244000DFED377A66EEA77AFDEEE77A17EE902A8F
:10245000FFF73CB8DFED327A66EEA77AFDEEE77A59
:1024600017EE902AFEF7A9BEDFED2D7A66EEA76A79
:10247000FDEEE67A17EE902AFEF796BCDFED287A9D
:1024800066EEA77AFDEEE77A17EE901AFEF763BDC7
:10249000DFED237A66EEA77AFDEEE77A17EE902A53
:1024A000FEF736BFDFED1E7A66EEA76AFDEEE67A2E
:1024B00017EE902AFEF7B6BEDFED197A66EEA77A20
:1024C000FDEEE77A17EE902AFEF705BADFED147AF3
:1024D00066EEA76AFDEEE67A17EE902AFFF729B8B6
:1024E000DFED0F7A66EEA77AFDEEE77A17EE901A27
:1024F000FEF776BBDFED0A7A66EEA77AFDEEE77AA5
:1025000017EE901AFFF787BBDFED057A66EEA76A34
:10251000FDEEE67A17EE901AFFF7A7BA00000180E9
:1025200000FEFF4E2DE9F04F2DED028B90F8883024
:102530008FB0002B00F0868000F18806DFF838832A
:10254000C44F16F8013F9FEDC48A00258346C2465A
:10255000B9466C1C3BB9082C6FD0254616F8013FD4
:102560006C1C002BF7D00221BC480FF091FBBC483B
:102570000DF00CF9062DEED801A353F825F000BF9D
:1025800069270000DF2700007D280000F1280000F7
:102590006D29000057250000CB260000F7EE007AD9
:1025A000B4EEE77AF1EE10FA40F3CC85AD4A72B69C
:1025B000AD490024CA610C7662B6D0F894101B684D
:1025C0000193019B826F5B1A934236D9D0ED1F7A3B
:1025D00090ED207AF8EEE77AF5EEC07AF1EE10FA97
:1025E00040F2C683F7EE006AB4EEE67AF1EE10FA36
:1025F00040F32B829B4A9FED987A67EE877AFDEE37
:10260000E77A17EE903A002B00F0398272B69749BC
:10261000C8690A62904200F03F8280FAA2F4EFF3A8
:1026200000852E0100F1C78394FBF3F3002B00F02B
:10263000D6834B6201230B7662B60FB0BDEC028BE2
:10264000BDE8F08F8A4BD0F894101A680092009A77
:10265000846E521AA242B2D9D0ED1B7A90ED1C7A48
:10266000F8EEE77AF5EEC07AF1EE10FA96D9F7EEC9
:10267000006AB4EEE67AF1EE10FA40F3C3817949CC
:102680009FED757A67EE877AFDEEE77A17EE902A6E
:10269000002A00F0D18172B6734DEC6929628C4238
:1026A00000F0F48184FAA1F6EFF300873F0100F116
:1026B0008C8396FBF2F2002A00F098836A62012272
:1026C0002A7662B6D0F8941079E7694BDBF8AC0053
:1026D0001A680C920C99DBF86820091A914200F2F2
:1026E000DF811B680D930D9BDBF878201B1A93424A
:1026F0007FF633AFDBED1F7A9BED207AF8EEE77AB9
:10270000F5EEC07AF1EE10FA40F25285F7EE006A6B
:10271000B4EEE67AF1EE10FA40F30884514A67EE1F
:10272000887AFDEEE77A17EE903A002B00F01684D7
:1027300072B6D8F81C10C8F82020914200F0A38788
:1027400081FAA2F0EFF300852D0100F1658690FB80
:10275000F3F3002B00F04E86C8F82430012388F8EC
:10276000183062B62546F9E6414BDBF894001A684A
:1027700002920299DBF86820091A914200F2BF82A6
:102780001B680393039BDBF878201B1A93427FF6A8
:10279000E4AEDBED1F7A9BED207AF8EEE77AF5EEFA
:1027A000C07AF1EE10FA40F2D485F7EE006AB4EE8A
:1027B000E67AF1EE10FA40F3A4842A4A67EE887AAA
:1027C000FDEEE77A17EE903A002B00F0B28472B675
:1027D0002649C8690A62904240F00181C1E0244B59
:1027E000DBF898001A6804920499DBF86820091A4B
:1027F000914200F212821B680593059BDBF878205A
:102800001B1A93427FF6A9AEDBED1F7A9BED207A6F
:10281000F8EEE77AF5EEC07AF1EE10FA40F2FF84B6
:10282000F7EE006AB4EEE67AF1EE10FA40F3488370
:102830000C4A67EE887AFDEEE77A17EE903A002BA5
:1028400000F0568372B60B49C8690A62904240F0A4
:10285000C68086E040DD0020797830425455010082
:1028600044AB00200000FF7F44DE00201CC000209D
:10287000D42701202CC9002060D70020C14BDBF8F1
:102880009C001A6806920699DBF86820091A9142A2
:1028900000F23E811B680793079BDBF878201B1A28
:1028A00093427FF65AAEDBED1F7A9BED207AF8EE6D
:1028B000E77AF5EEC07AF1EE10FA40F2C284F7EE54
:1028C000006AB4EEE67AF1EE10FA40F3D882AE4A2E
:1028D00067EE887AFDEEE77A17EE903A002B00F06B
:1028E000E68272B6A949C8690A62904277D138E097
:1028F000A44BDBF8A0001A6808920899DBF868205E
:10290000091A914200F2C2811B680993099BDBF806
:1029100078201B1A93427FF620AEDBED1F7A9BEDE9
:10292000207AF8EEE77AF5EEC07AF1EE10FA40F28E
:102930006484F7EE006AB4EEE67AF1EE10FA40F342
:102940005C82914A67EE887AFDEEE77A17EE903A5C
:10295000002B00F06A8272B68D49C8690A62904203
:102960003DD100230B7662B62546F7E5854BDBF8B3
:10297000A4001A680A920A99DBF86820091A9142A1
:1029800000F212811B680B930B9BDBF878201B1A5B
:1029900093427FF6E2ADDBED1F7A9BED207AF8EEF5
:1029A000E77AF5EEC07AF1EE10FA40F21484F7EE11
:1029B000006AB4EEE67AF1EE10FA40F33F82724A12
:1029C00067EE887AFDEEE77A17EE903A002B00F07A
:1029D0004D8272B66F49C8690A629042C1D080FACE
:1029E000A2F5EFF3008E1EF0006F40F0D18195FB51
:1029F000F3F3002B00F0D8814B6201230B7662B613
:102A00002546ABE5BFEE006AB4EEC67AF1EE10FAE9
:102A100000F1B184DFED605A67EEA57AFDEEE77A4A
:102A200017EE902A002A40F03A87B4EEE67AF1EEEB
:102A300010FA40F3E884544972B6584A0024D16130
:102A4000147662B6D0F89410B9E5BFEE006AB4EE21
:102A5000C67AF1EE10FA00F19184DFED4F5A67EE7D
:102A6000A57AFDEEE77A17EE903A002B40F0A287A8
:102A7000B4EEE67AF1EE10FA40F38A84424A72B676
:102A8000474B0021DA61197662B6D6E500222A7634
:102A900062B6D0F8941092E500230B7662B6CCE5CE
:102AA000DBED1B7A9BED1C7AF8EEE77AF5EEC07A47
:102AB000F1EE10FA40F22884F7EE006AB4EEE67AFE
:102AC000F1EE10FA40F3FC822F4967EE887AFDEEB2
:102AD000E77A17EE902A002A00F00A8372B6F869A6
:102AE0003962884200F0F28580FAA1F5EFF3008E9A
:102AF0001EF0006F40F0718495FBF2F2002A00F0A6
:102B0000DB847A6201223A7662B6DBF8AC00E8E553
:102B1000DBED1B7A9BED1C7AF8EEE77AF5EEC07AD6
:102B2000F1EE10FA40F2CA83F7EE006AB4EEE67AEC
:102B3000F1EE10FA40F3A282134967EE887AFDEEB7
:102B4000E77A17EE902A002A00F0B08272B6154894
:102B5000C56901628D4200F0A48585FAA1FEEFF3FC
:102B6000008C1CF0006F40F071849EFBF2F2002A92
:102B700000F0178442620122027662B6DBF89C0004
:102B800088E600BFD42701200000FF7F30DF00204F
:102B900030C50020CCD800207978304244DE0020B7
:102BA0001CC00020DCC60020DBED1B7A9BED1C7AEC
:102BB000F8EEE77AF5EEC07AF1EE10FA40F2E5822F
:102BC000F7EE006AB4EEE67AF1EE10FA40F33582E1
:102BD000CC4967EE887AFDEEE77A17EE902A002A54
:102BE00000F0438272B6C848C56901628D4200F0A8
:102BF000758585FAA1FEEFF3008C1CF0006F40F0A4
:102C0000D8839EFBF2F2002A00F01884426201226F
:102C1000027662B6DBF8A400B4E6DBED1B7A9BED2E
:102C20001C7AF8EEE77AF5EEC07AF1EE10FA40F28F
:102C30001A83F7EE006AB4EEE67AF1EE10FA40F38A
:102C4000DA81B04967EE887AFDEEE77A17EE902ACE
:102C5000002A00F0E88172B6AC48C56901628D4275
:102C600000F0268585FAA1FEEFF3008C1CF0006FC2
:102C700040F0FA839EFBF2F2002A00F0A783426242
:102C80000122027662B6DBF89800B4E5DBED1B7A30
:102C90009BED1C7AF8EEE77AF5EEC07AF1EE10FAC9
:102CA00040F21F83F7EE006AB4EEE67AF1EE10FA16
:102CB00040F38081934967EE887AFDEEE77A17EE5C
:102CC000902A002A00F08E8172B69148C56901628F
:102CD0008D4200F0DF8485FAA1FEEFF3008C1CF03A
:102CE000006F40F0CF839EFBF2F2002A00F09F833A
:102CF00042620122027662B6DBF8A00004E6DBED58
:102D00001B7A9BED1C7AF8EEE77AF5EEC07AF1EECD
:102D100010FA40F20B83F7EE006AB4EEE67AF1EEB9
:102D200010FA40F32581774967EE887AFDEEE77A5D
:102D300017EE902A002A00F0338172B6754DE869CB
:102D40002962884200F0BB8480FAA1FEEFF3008C78
:102D50001CF0006F40F0A3839EFBF2F2002A00F00B
:102D600010836A6201222A7662B6DBF8940007E5D6
:102D7000F7EE007AB4EEE77AF1EE10FA40F3F48160
:102D8000604B72B6644A0021D361117662B654E496
:102D900003F1010EBEF1020F91BF2B4692FBF3F53A
:102DA00090FBF3F3EB1A24E69042ACBF4FF0FF32F6
:102DB00001224A6221E65D1C022D91BF234692FB4F
:102DC000F3F490FBF3F3E31A30E4571C022F91BFA6
:102DD000324691FBF2F694FBF2F2B21A6BE49042A7
:102DE000ACBF4FF0FF3201224A6223E48C42ACBFF9
:102DF0004FF0FF310121696261E4BFEE006AB4EE79
:102E0000C67AF1EE10FA00F17C8467EE887AFDEE66
:102E1000E77A17EE903A002B40F01985B4EEE67A87
:102E2000F1EE10FA40F39D84364A72B63B4B002116
:102E3000DA61197662B62546FFF790BBBFEE006AED
:102E4000B4EEC67AF1EE10FA00F15E8467EE887A8D
:102E5000FDEEE77A17EE903A002B40F00285B4EED3
:102E6000E67AF1EE10FA40F3B584264A72B62C4B9E
:102E70000021DA61197662B62546FFF76FBBBFEE17
:102E8000006AB4EEC67AF1EE10FA00F12E8467EE15
:102E9000887AFDEEE77A17EE903A002B40F04E85E7
:102EA000B4EEE67AF1EE10FA40F38C84154A72B66D
:102EB0001C4B0021DA61197662B62546FFF74EBB3E
:102EC000BFEE006AB4EEC67AF1EE10FA00F12E847D
:102ED00067EE887AFDEEE77A17EE903A002B40F025
:102EE0000F85B4EEE67AF1EE10FA40F34384054A1A
:102EF00072B60D4B0021DA61197662B62546FFF7EE
:102F00002DBB00BF0000FF7F08DF0020C8C00020ED
:102F1000E0D9002044DE00201CC0002030C5002085
:102F2000CCD8002030DF00202CC90020BFEE006A82
:102F3000B4EEC67AF1EE10FA00F1F58367EE887A06
:102F4000FDEEE77A17EE903A002B40F0CF84B4EE16
:102F5000E67AF1EE10FA40F34584CC4A72B60023CB
:102F6000C8F81C2088F8183062B62546FFF7F6BA74
:102F7000BFEE006AB4EEC67AF1EE10FA00F1CA8331
:102F800067EE887AFDEEE77A17EE902A002A40F085
:102F90002F85B4EEE67AF1EE10FA40F3CA83BB490E
:102FA00072B6BB4A0020D161107662B6DBF894009D
:102FB000FFF7E6BBBFEE006AB4EEC67AF1EE10FA98
:102FC00000F19C8367EE887AFDEEE77A17EE902A8F
:102FD000002A40F02185B4EEE67AF1EE10FA40F3D3
:102FE000D283AA4972B6AB4A0020D161107662B68C
:102FF000DBF8A00088E4BFEE006AB4EEC67AF1EE1A
:1030000010FA00F1758367EE887AFDEEE77A17EE25
:10301000902A002A40F09C84B4EEE67AF1EE10FA91
:1030200040F38F83994972B69B4A0020D161107694
:1030300062B6DBF89800FFF7DEBBBFEE006AB4EEC5
:10304000C67AF1EE10FA00F16B8367EE887AFDEE36
:10305000E77A17EE902A002A40F03E84B4EEE67A32
:10306000F1EE10FA40F39683884972B68B4A00203D
:10307000D161107662B6DBF8A40083E4BFEE006A8B
:10308000B4EEC67AF1EE10FA00F1418367EE887A69
:10309000FDEEE77A17EE902A002A40F09F84B4EE06
:1030A000E67AF1EE10FA40F35483784972B67C4A1E
:1030B0000020D161107662B6DBF89C00FFF7EABB16
:1030C000BFEE006AB4EEC67AF1EE10FA00F1138397
:1030D00067EE887AFDEEE77A17EE902A002A40F034
:1030E0009184B4EEE67AF1EE10FA40F35B8367491F
:1030F00072B60022F9613A7662B6DBF8AC00FFF7EF
:10310000F0BABFEE006AB4EEC67AF1EE10FA00F142
:10311000048367EE887AFDEEE77A17EE903A002B8B
:1031200040F0D083B4EEE67AF1EE10FA40F3428339
:10313000564A72B65B4B0021DA61197662B62546B3
:10314000FFF70CBAFFEE007AB4EEE77AF1EE10FA70
:1031500000F1BA81DFED547A27EE277AFDEEC77AC7
:1031600017EE902AFFF723BAFFEE007AB4EEE77A63
:10317000F1EE10FA00F1AB81DFED4B7A27EE277A02
:10318000FDEEC77A17EE903AFBE5F7EE007AB4EE63
:10319000E77AF1EE10FA40F343823C4A72B63F49B7
:1031A0000020CA61087662B6DBF8A400FFF7EABB2C
:1031B000F7EE007AB4EEE77AF1EE10FA40F300820F
:1031C000324B72B60022C8F81C3088F8182062B65C
:1031D0002546FFF7C3B9F7EE007AB4EEE77AF1EED1
:1031E00010FA40F38781294B72B6304A0021D3612F
:1031F000117662B62546FFF7B1B9F7EE007AB4EE64
:10320000E77AF1EE10FA40F3CA81204B72B6284AF1
:103210000021D361117662B62546FFF79FB9F7EE1C
:10322000007AB4EEE77AF1EE10FA40F31B82174B06
:1032300072B6204A0021D361117662B62546FFF7A7
:103240008DB9F7EE007AB4EEE77AF1EE10FA40F3BA
:1032500073810E4B72B6184A0021D361117662B6A3
:103260002546FFF77BB9F7EE007AB4EEE77AF1EE88
:1032700010FA40F38381054A72B607490020CA61FB
:10328000087662B6DBF89800FFF7B5BA0000FF7F5A
:1032900044DE0020E0D90020C8C0002008DF002064
:1032A000DCC600201CC0002000FEFF4ECCD8002051
:1032B00030C500202CC9002030DF0020F7EE007A56
:1032C000B4EEE77AF1EE10FA40F3BB81CD4A72B664
:1032D000CD490020CA61087662B6DBF89C00FFF792
:1032E000D9BAF7EE007AB4EEE77AF1EE10FA40F3CD
:1032F0007881C44A72B6C5490020CA61087662B6B0
:10330000DBF8A000FFF700BBF7EE007AB4EEE77A37
:10331000F1EE10FA40F3FF80BA4A72B60021FA616A
:10332000397662B6DBF8AC00FFF7DBB9F7EE007A6E
:10333000B4EEE77AF1EE10FA40F30F81B14A72B6BB
:10334000B3490020CA61087662B6DBF89400FFF743
:1033500017BAF7EE007AB4EEE77AF1EE10FA40F31E
:10336000B880A84B72B6AB4A0021D361117662B621
:103370002546FFF7F3B8A849FFF782B9A64AFFF739
:103380003AB98842ACBF4FF0FF3101216962E9E4EC
:10339000B4EEC67AF1EE10FA40F116839E4AFFF7BA
:1033A0006EBB8D42ACBF4FF0FF3101214162FFF790
:1033B000E2BB02F1010CBCF1020F91BF724691FB1E
:1033C000F2FE95FBF2F2C2EB0E021CE48D42ACBFA2
:1033D0004FF0FF310121416252E402F1010EBEF1D2
:1033E000020F91BF2A4691FBF2F590FBF2F2AA1A66
:1033F000FFF784BB9142ACBF4FF0FF320122C8F807
:103400002420FFF7ABB9B4EEC67AF1EE10FA40F122
:103410000D838149FFF710BB5D1C022D91BF034650
:1034200092FBF3F091FBF3F3C31AFFF792B98D42CD
:10343000ACBF4FF0FF31012141625AE48D42ACBF75
:103440004FF0FF3101214162FFF7E1BB02F1010CB6
:10345000BCF1020F91BF724691FBF2FE95FBF2F2B6
:10346000C2EB0E02FFF783BB02F1010CBCF1020FAD
:1034700091BF724691FBF2FE95FBF2F2C2EB0E0297
:10348000FFF7FABB02F1010CBCF1020F91BF7246CB
:1034900091FBF2FE95FBF2F2C2EB0E0225E402F183
:1034A000010CBCF1020F91BF724691FBF2FE90FB42
:1034B000F2F2C2EB0E0251E48842ACBF4FF0FF3192
:1034C00001217962FFF71EBB534AFFF770B8524BD8
:1034D00057E4FFEE007AB4EEE77AF1EE10FA00F16D
:1034E0009281DFED4E7A27EE277AFDEEC77A17EE4E
:1034F000903A37E7FFEE007AB4EEE77AF1EE10FA91
:1035000000F18781DFED457A27EE277AFDEEC77A55
:1035100017EE903A68E6FFEE007AB4EEE77AF1EE45
:1035200010FA00F16C81DFED3D7A27EE277AFDEE8F
:10353000C77A17EE902AF0E6FFEE007AB4EEE77A4B
:10354000F1EE10FA00F16381DFED347A27EE277A8D
:10355000FDEEC77A17EE903A7CE6FFEE007AB4EE05
:10356000E77AF1EE10FA00F14C81DFED2C7A27EECC
:10357000277AFDEEC77A17EE902AE0E6FFEE007A92
:10358000B4EEE77AF1EE10FA00F14781DFED237A2D
:1035900027EE277AFDEEC77A17EE902A6CE6FFEE4B
:1035A000007AB4EEE77AF1EE10FA00F13A81DFED3D
:1035B0001B7A27EE277AFDEEC77A17EE903A25E6BA
:1035C000FFEE007AB4EEE77AF1EE10FA00F1158121
:1035D000DFED127A27EE277AFDEEC77A17EE903AE2
:1035E000EFE5FFEE007AB4EEE77AF1EE10FA00F1C3
:1035F0001281DFED0A7A27EE277AFDEEC77A17EE01
:10360000902A77E60000FF7FDCC60020E0D900208A
:1036100044DE00201CC000200000018000FEFF4EA0
:10362000FFEE007AB4EEE77AF1EE10FA00F1E380F3
:103630005FED067A27EE277AFDEEC77A17EE902A1D
:10364000ACE5FFEE007AB4EEE77AF1EE10FA00F1A5
:10365000E6805FED0E7A27EE277AFDEEC77A17EE49
:10366000902A34E6FFEE007AB4EEE77AF1EE10FA33
:1036700000F1CB805FED177A27EE277AFDEEC77A4F
:1036800017EE903AD4E500238AF8183062B6254642
:10369000FEF764BF0022027662B6DBF8A000FFF7F7
:1036A00033B90022027662B6DBF89C00FFF7F2B86D
:1036B0000022027662B6DBF89800FFF79CB8002281
:1036C0002A7662B6DBF89400FFF75AB8002289F830
:1036D000182062B6DBF8AC00FFF703B800220276D0
:1036E00062B6DBF8A400FFF74DB9DA4AFFF7F0B88D
:1036F000D849FFF7A7BAD749FFF7E7B9D549FFF788
:10370000DABAD44AFFF71EB9D24AFFF759B9D149FC
:10371000FFF713BACF49FFF707BBCE4AFFF74EB802
:10372000CC49FFF756BACB4AFEF7F9BFC94AFFF7B3
:1037300080B8B4EEC67AF1EE10FA40F12781C5499F
:103740002EE4B4EEC67AF1EE10FA40F11581C149CB
:1037500069E4B4EEC67AF1EE10FA40F12181BD4978
:10376000A4E4B4EEC67AF1EE10FA40F18480B94ACE
:10377000FFF75BBBB4EEC67AF1EE10FA40F1608160
:10378000B44AFFF7B5BBB4EEC67AF1EE10FA4AD5EB
:10379000B04927E4B4EEC67AF1EE10FA40F1BA80EF
:1037A000AC4962E4B4EEC67AF1EE10FA40F18180E1
:1037B000A8499DE4B4EEC67AF1EE10FA40F1B48067
:1037C000A44AB6E4B4EEC67AF1EE10FA35D5A14AB1
:1037D000FFF76DBBB4EEC67AF1EE10FA55D59D4AEF
:1037E000FFF744BBB4EEC67AF1EE10FA40F1BA80AE
:1037F000984AFFF7B3BB974AD0E4964BE1E4954A69
:103800008BE5944A9BE5934BACE5924B10E5914BCD
:1038100020E5904BE8E48F4A6CE58E4A2CE58D4A12
:1038200055E58C4BF2E4DFED8C7A27EE277AFDEE3E
:10383000C77A17EE901AFFF7D5BBDFED877A27EE30
:10384000277AFDEEC77A17EE902AFFF730BBDFED3F
:10385000827A27EE277AFDEEC77A17EE902AFFF7D5
:103860007AB8DFED7D7A27EE277AFDEEC77A17EE7C
:10387000902AFFF7AEB8DFED787A27EE277AFDEED3
:10388000C77A17EE902AFFF7D0BADFED737A27EEEA
:10389000277AFDEEC77A17EE902AFFF7E7BADFED39
:1038A0006E7A27EE277AFDEEC77A17EE901AFEF7AA
:1038B000F2BEDFED697A27EE277AFDEEC77A17EEC2
:1038C000901A15E4DFED647A27EE277AFDEEC77AC9
:1038D00017EE902AFEF77BBFDFED5F7A27EE277A9F
:1038E000FDEEC77A17EE901AFFF77CB9DFED5A7A32
:1038F00027EE277AFDEEC77A17EE902AFEF718BF5B
:10390000DFED557A27EE277AFDEEC77A17EE902A7B
:10391000FEF798BFDFED507A27EE277AFDEEC77AE3
:1039200017EE901AFFF7A1BBDFED4B7A27EE277A4F
:10393000FDEEC77A17EE902AFFF7FBBBDFED467A64
:1039400027EE277AFDEEC77A17EE902AFEF7C9BF59
:10395000DFED417A27EE277AFDEEC77A17EE901A4F
:10396000FFF779B9DFED3C7A27EE277AFDEEC77ACB
:1039700017EE902AFFF7F2BADFED377A27EE277AB3
:10398000FDEEC77A17EE901AFFF74DBBDFED327AE6
:1039900027EE277AFDEEC77A17EE901AFFF700BBE5
:1039A000DFED2D7A27EE277AFDEEC77A17EE901A13
:1039B000FFF77CBBDFED287A27EE277AFDEEC77A8A
:1039C00017EE902AFEF722BEDFED237A27EE277A44
:1039D000FDEEC77A17EE902AFFF751B8DFED1E7A99
:1039E00027EE277AFDEEC77A17EE901AFFF7AEB8EA
:1039F000DFED197A27EE277AFDEEC77A17EE901AD7
:103A0000FFF79BB9DFED147A27EE277AFDEEC77A30
:103A100017EE901AFFF762B8DFED0F7A27EE277ADC
:103A2000FDEEC77A17EE901AFFF74EB9DFED0A7A6E
:103A300027EE277AFDEEC77A17EE901AFEF7FCBF45
:103A4000DFED057A27EE277AFDEEC77A17EE902A8A
:103A5000FFF74EBA0000018000FEFF4EF0B490F870
:103A600088308EB003B390F889308B4200F09F808D
:103A700090F88A308B4200F0C68190F88B308B42F0
:103A800000F0FB8190F88C308B4200F0CB8090F8F6
:103A90008D308B4200F06A8190F88F308B4200F0BD
:103AA000FC800EB0F0BC7047A94BD0F894101A6897
:103AB0000092009A846E521AA2423ED81B6801936B
:103AC000019B826F5B1A9342EBD9D0ED1F7A90ED88
:103AD000207AF8EEE77AF5EEC07AF1EE10FA40F2CD
:103AE000A183F7EE006AB4EEE67AF1EE10FA40F345
:103AF0000E81984A9FED987A67EE877AFDEEE77A15
:103B000017EE903A002B00F01C8172B69349CC69F5
:103B10000A62A24200F0EB8184FAA2F0EFF3008582
:103B20002D0100F19F8390FBF3F3002B00F0B58390
:103B30004B6201230B7662B6B3E7D0ED1B7A90EDB2
:103B40001C7AF8EEE77AF5EEC07AF1EE10FA40F260
:103B50007883F7EE006AB4EEE67AF1EE10FA40F3FD
:103B6000CA817C499FED7C7A67EE877AFDEEE77A21
:103B700017EE902A002A00F0D88172B6784CE569D9
:103B800021628D4200F0488385FAA1F6EFF30087A9
:103B90003F0100F1788396FBF2F2002A00F06C837B
:103BA00062620122227662B6D0F8941086E7684BF2
:103BB000D0F894101A680292029A846E521AA242A5
:103BC00000F230821B680393039B826F5B1A93425F
:103BD0007FF667AFD0ED1F7A90ED207AF8EEE77AA6
:103BE000F5EEC07AF1EE10FA40F21C83F7EE006AAF
:103BF000B4EEE67AF1EE10FA40F31B86554A9FEDDB
:103C0000567A67EE877AFDEEE77A17EE903A002B48
:103C100000F0978072B65149C8690A62904240F03C
:103C2000DF8064E14A4BD0F8A0101A680892089A25
:103C3000846E521AA24200F2BB811B680993099B51
:103C4000826F5B1A93427FF62CAFD0ED1F7A90ED16
:103C5000207AF8EEE77AF5EEC07AF1EE10FA40F24B
:103C60005385F7EE006AB4EEE67AF1EE10FA40F30F
:103C7000A083384A9FED387A67EE877AFDEEE77ABF
:103C800017EE903A002B00F0AE8372B63549C86942
:103C90000A62904240F0A48029E12D4BD0F8AC108C
:103CA0001A680C920C9A846E521AA24200F2468153
:103CB0001B680D930D9B826F5B1A93427FF6F1AEEA
:103CC000D0ED1F7A90ED207AF8EEE77AF5EEC07A23
:103CD000F1EE10FA40F27885F7EE006AB4EEE67A7B
:103CE000F1EE10FA40F321831A4A9FED1B7A67EE3A
:103CF000877AFDEEE77A17EE903A002B00F02F83DB
:103D000072B61949C8690A62904269D1EFE0BFEE04
:103D1000006AB4EEC67AF1EE10FA00F1F982DFED36
:103D20000E5A67EEA57AFDEEE77A17EE903A002B71
:103D300040F09487B4EEE67AF1EE10FA40F3E082B8
:103D4000044A72B6054B0021DA61197662B6A8E61C
:103D5000D42701200000FF7F797830421CC000206A
:103D600044DE002030C5002060D70020CA4BD0F8C8
:103D7000A4101A680A920A9A846E521AA24200F299
:103D800011821B680B930B9B826F5B1A93427FF629
:103D900088AED0ED1F7A90ED207AF8EEE77AF5EE56
:103DA000C07AF1EE10FA40F29E84F7EE006AB4EEAB
:103DB000E67AF1EE10FA40F3A483B84A9FEDB87AA0
:103DC00067EE877AFDEEE77A17EE903A002B00F067
:103DD000B28372B6B349C8690A62904200F0878024
:103DE00080FAA2F4EFF300852D0100F17F8294FBAD
:103DF000F3F3002B7FF49CAE9042ACBF4FF0FF3248
:103E000001224A6295E6A44BD0F898101A680492F1
:103E1000049A846E521AA24200F250811B680593E4
:103E2000059B826F5B1A93427FF63BAED0ED1F7A03
:103E300090ED207AF8EEE77AF5EEC07AF1EE10FA1E
:103E400040F2E684F7EE006AB4EEE67AF1EE10FA9C
:103E500040F38D82914A9FED927A67EE877AFDEE6C
:103E6000E77A17EE903A002B00F09B8272B68E49EB
:103E7000C8690A629042B3D139E0874BD0F89C10F0
:103E80001A680692069A846E521AA24200F2508173
:103E90001B680793079B826F5B1A93427FF601AE04
:103EA000D0ED1F7A90ED207AF8EEE77AF5EEC07A41
:103EB000F1EE10FA40F23984F7EE006AB4EEE67AD9
:103EC000F1EE10FA40F3D582744A9FED757A67EEF1
:103ED000877AFDEEE77A17EE903A002B00F0E38246
:103EE00072B67249C8690A6290427FF479AF0023C2
:103EF0000B7662B6D5E5BFEE006AB4EEC67AF1EE97
:103F000010FA00F10882DFED665A67EEA57AFDEE41
:103F1000E77A17EE902A002A40F03D87B4EEE67A61
:103F2000F1EE10FA40F3F9815C4972B6604A002460
:103F3000D161147662B6D0F89410BFE5D0ED1B7A4B
:103F400090ED1C7AF8EEE77AF5EEC07AF1EE10FA11
:103F500040F20F84F7EE006AB4EEE67AF1EE10FA62
:103F600040F315834D499FED4E7A67EE877AFDEE5B
:103F7000E77A17EE902A002A00F0258372B64D4C9E
:103F8000E56921628D4200F0988585FAA1F6EFF38C
:103F900000873F0100F17C8496FBF2F2002A00F0DA
:103FA000948462620122227662B6D0F8AC107FE679
:103FB000D0ED1B7A90ED1C7AF8EEE77AF5EEC07A38
:103FC000F1EE10FA40F2C283F7EE006AB4EEE67A40
:103FD000F1EE10FA40F36F8230499FED317A67EECF
:103FE000877AFDEEE77A17EE902A002A00F07F82AA
:103FF00072B6314CE56921628D4200F07A8585FA0E
:10400000A1F6EFF300873F0100F1308496FBF2F256
:10401000002A00F0488462620122227662B6D0F85B
:10402000A0100AE6D0ED1B7A90ED1C7AF8EEE77A44
:10403000F5EEC07AF1EE10FA40F2D783F7EE006A9F
:10404000B4EEE67AF1EE10FA40F37D8213499FED6B
:10405000147A67EE877AFDEEE77A17EE902A002A47
:1040600000F08B8272B6124CE56921628D4200F03D
:10407000398585FAA1F6EFF300873F0100F13F840F
:1040800096FBF2F2002A00F032846262012222766C
:1040900062B6D0F8941095E5D42701200000FF7F88
:1040A00079783042CCD800202CC9002030DF0020A5
:1040B00044DE002040DD0020E0D90020D0ED1B7A56
:1040C00090ED1C7AF8EEE77AF5EEC07AF1EE10FA90
:1040D00040F2F682F7EE006AB4EEE67AF1EE10FAFC
:1040E00040F3A481C4499FEDC57A67EE877AFDEE5F
:1040F000E77A17EE902A002A00F0B28172B6C04C1F
:10410000E56921628D4200F0FB8485FAA1F6EFF3A8
:1041100000873F0100F1CF8396FBF2F2002A00F006
:10412000F98362620122227662B6D0F8981075E6B1
:10413000D0ED1B7A90ED1C7AF8EEE77AF5EEC07AB6
:10414000F1EE10FA40F2A982F7EE006AB4EEE67AD8
:10415000F1EE10FA40F34382A7499FEDA87A67EE8B
:10416000877AFDEEE77A17EE902A002A00F0518256
:1041700072B6A44CE56921628D4200F0A58485FAEF
:10418000A1F6EFF300873F0100F1A78396FBF2F25F
:10419000002A00F0D08362620122227662B6D0F853
:1041A0009C1075E6D0ED1B7A90ED1C7AF8EEE77A5C
:1041B000F5EEC07AF1EE10FA40F25C82F7EE006A9A
:1041C000B4EEE67AF1EE10FA40F32C828A499FEDC4
:1041D0008B7A67EE877AFDEEE77A17EE902A002A4F
:1041E00000F03C8272B6884CE56921628D4200F095
:1041F000728485FAA1F6EFF300873F0100F1918305
:1042000096FBF2F2002A00F03C83626201222276E1
:1042100062B6D0F8A410B4E50022227662B6D0F8D7
:1042200094104BE4F7EE007AB4EEE77AF1EE10FA70
:104230003ADD714B72B6754A0021D361117662B6D0
:104240002FE4F7EE007AB4EEE77AF1EE10FA3CDDF7
:10425000694A72B66E490024CA610C7662B6D0F81B
:1042600094102BE45D1C022D91BF034692FBF3F0EA
:1042700094FBF3F3C31A58E48D42ACBF4FF0FF3107
:10428000012161628DE4571C022F91BF324691FBE0
:10429000F2F695FBF2F2B21A7FE4A242D4BF4FF0DD
:1042A000FF3201224A6244E4FFEE007AB4EEE77A7C
:1042B000F1EE10FA00F19181DFED567A27EE277AC0
:1042C000FDEEC77A17EE903AB4E7FFEE007AB4EE4F
:1042D000E77AF1EE10FA00F1CB81DFED4E7A27EEAE
:1042E000277AFDEEC77A17EE902AB2E75D1C022D01
:1042F00091BF234692FBF3F490FBF3F3E31A78E5C6
:10430000B4EEC67AF1EE10FA40F1B284424A18E5F2
:10431000414AFFF7EFBB404924E4B4EEC67AF1EE20
:1043200010FA40F1FD843C49FFE5BFEE006AB4EEAF
:10433000C67AF1EE10FA00F13484DFED305A67EE00
:10434000A57AFDEEE77A17EE903A002B40F02D8526
:10435000B4EEE67AF1EE10FA40F32684264A72B6FD
:104360002E4B0021DA61197662B6FFF79ABBBFEED9
:10437000006AB4EEC67AF1EE10FA00F12A84DFED9D
:104380001F5A67EEA57AFDEEE77A17EE903A002BFA
:1043900040F0B284B4EEE67AF1EE10FA40F3108405
:1043A000154A72B61E4B0021DA61197662B6FFF724
:1043B00078BBBFEE006AB4EEC67AF1EE10FA00F1F7
:1043C0002284DFED0E5A67EEA57AFDEEE77A17EE4E
:1043D000903A002B40F07C84B4EEE67AF1EE10FACD
:1043E00040F31484044A72B60E4B0021DA61197648
:1043F00062B6FFF756BB00BF0000FF7F79783042FE
:10440000C8C00020DCC6002008DF00201CC000203F
:1044100044DE002000FEFF4E0000018060D7002037
:104420002CC9002030C5002079783042BFEE006AE8
:10443000B4EEC67AF1EE10FA00F1B0835FED065AE1
:1044400067EEA57AFDEEE77A17EE902A002A40F093
:104450008E84B4EEE67AF1EE10FA40F39783CE49FB
:1044600072B6CE4A0024D161147662B6D0F89810A4
:10447000D4E4BFEE006AB4EEC67AF1EE10FA00F1B1
:104480006A83DFEDC75A67EEA57AFDEEE77A17EE8D
:10449000903A002B40F0A784B4EEE67AF1EE10FAE1
:1044A00040F36983BC4A72B6BE4B0021DA611976CB
:1044B00062B6FFF7F6BAFFEE006AB4EEE67AF1EE06
:1044C00010FA00F14B83DFEDB66A67EEA67AFDEED7
:1044D000E77A17EE902A002A40F07184F7EE007A0E
:1044E000B4EEE77AF1EE10FA40F33B83AA4972B6D4
:1044F000AD4A0024D161147662B6D0F8A010FFF75F
:104500009CBBBFEE006AB4EEC67AF1EE10FA00F181
:104510006383DFEDA35A67EEA57AFDEEE77A17EE27
:10452000903A002B40F0DE83B4EEE67AF1EE10FA1A
:1045300040F35583984A72B69C4B0021DA61197694
:1045400062B6FFF7AEBABFEE006AB4EEC67AF1EE1D
:1045500010FA00F1F582DFED925A67EEA57AFDEED2
:10456000E77A17EE902A002A40F0EE83B4EEE67A5E
:10457000F1EE10FA40F3E782874972B68C4A0024C4
:10458000D161147662B6D0F89410FFF71BBBFFEE32
:10459000006AB4EEE67AF1EE10FA00F1B8829FED0F
:1045A000806A67EE867AFDEEE77A17EE902A002A97
:1045B00040F0C083F7EE007AB4EEE77AF1EE10FA3D
:1045C00040F3A882744972B67A4A0024D161147605
:1045D00062B6D0F8AC10FFF76BBB774B2AE6BFEEA4
:1045E000006AB4EEC67AF1EE10FA00F109839FED8D
:1045F0006C6A67EE867AFDEEE77A17EE902A002A5B
:1046000040F05383B4EEE67AF1EE10FA40F30683FD
:10461000614972B6694A0024D161147662B6D0F855
:104620009C1035E4FFEE006AB4EEE67AF1EE10FA83
:1046300000F1C382DFED5A6A67EEA67AFDEEE77AF3
:1046400017EE902A002A40F0E283F7EE007AB4EEEB
:10465000E77AF1EE10FA40F3CA824F4972B6584A2F
:104660000024D161147662B6D0F8A410FFF789BB9C
:10467000514AEEE5F7EE007AB4EEE77AF1EE10FA81
:1046800040F3B581444A72B64D490024CA610C76A4
:1046900062B6D0F8A410FFF774BBF7EE007AB4EE60
:1046A000E77AF1EE10FA40F35E813B4A72B6434975
:1046B0000024CA610C7662B6D0F89C10FFF7E8BB04
:1046C000F7EE007AB4EEE77AF1EE10FA40F3B1813A
:1046D000314A72B631490024CA610C7662B6D0F80C
:1046E0009810FFF79BBBF7EE007AB4EEE77AF1EE95
:1046F00010FA40F36B81284B72B62C4A0021D3612B
:10470000117662B6FFF7CDB9F7EE007AB4EEE77A2C
:10471000F1EE10FA40F37C811F4B72B6294A00215A
:10472000D361117662B6FFF7BCB9F7EE007AB4EE4A
:10473000E77AF1EE10FA40F33881174B72B6194A56
:104740000021D361117662B6FFF7ABB9F7EE007ABC
:10475000B4EEE77AF1EE10FA40F38D810E4A72B6AC
:1047600011490024CA610C7662B6D0F8A010FFF798
:1047700064BAF7EE007AB4EEE77AF1EE10FA40F39D
:104780000381054A72B60B490024CA610C7662B6F1
:10479000D0F8AC10FFF78CBA0000FF7FC8C0002033
:1047A0007978304230DF0020E0D90020CCD80020DA
:1047B00044DE002040DD002000000180DCC6002037
:1047C00008DF002030C50020F7EE007AB4EEE77A6B
:1047D000F1EE10FA40F36081D24B72B6D24A00215A
:1047E000D361117662B6FFF75CB9F7EE007AB4EEEA
:1047F000E77AF1EE10FA40F32D81CA4A72B6CB493E
:104800000024CA610C7662B6D0F89410FFF7DAB9CA
:10481000F7EE007AB4EEE77AF1EE10FA40F3928008
:10482000C04B72B6C24A0021D361117662B6FFF75F
:1048300038B9BFEE006AB4EEC67AF1EE10FA00F1B4
:10484000A281DFEDBC5A67EEA57AFDEEE77A17EE9E
:10485000903A002B3FF46EAADFEDB77A27EE277A65
:10486000FDEEC77A17EE902AFFF7D4B9571C022F36
:1048700091BF324691FBF2F695FBF2F2B21AFFF7C6
:10488000C7BB8D42ACBF4FF0FF3101216162BDE477
:10489000571C022F91BF324691FBF2F695FBF2F2C4
:1048A000B21AFFF77BBB8D42ACBF4FF0FF31012145
:1048B0006162FFF7B1BB571C022F91BF324691FBDB
:1048C000F2F695FBF2F2B21A28E48D42ACBF4FF03B
:1048D000FF3101216162FFF765BB571C022F91BFB9
:1048E000324691FBF2F695FBF2F2B21A50E48D4299
:1048F000ACBF4FF0FF3101216162FFF7C7BB571C0E
:10490000022F91BF324691FBF2F695FBF2F2B21AFA
:10491000FFF7B8BB8D42ACBF4FF0FF3101216162A0
:1049200000E4571C022F91BF324691FBF2F695FB33
:10493000F2F2B21A66E48D42ACBF4FF0FF310121B2
:10494000616229E4FFEE007AB4EEE77AF1EE10FA44
:1049500000F17481DFED787A27EE277AFDEEC77AD1
:1049600017EE903A5DE7FFEE007AB4EEE77AF1EEEB
:1049700010FA00F16181DFED707A27EE277AFDEE03
:10498000C77A17EE902A91E6FFEE007AB4EEE77A46
:10499000F1EE10FA00F15481DFED677A27EE277A05
:1049A000FDEEC77A17EE902AECE6FFEE007AB4EE41
:1049B000E77AF1EE10FA00F13D81DFED5F7A27EE44
:1049C000277AFDEEC77A17EE903AB7E6FFEE007A47
:1049D000B4EEE77AF1EE10FA00F13881DFED567AA5
:1049E00027EE277AFDEEC77A17EE903A84E6FFEEBF
:1049F000007AB4EEE77AF1EE10FA00F12B81DFEDE8
:104A00004E7A27EE277AFDEEC77A17EE902A3AE61D
:104A1000FFEE007AB4EEE77AF1EE10FA00F10881C9
:104A2000DFED457A27EE277AFDEEC77A17EE903A4A
:104A300073E6FFEE007AB4EEE77AF1EE10FA00F1D9
:104A40000181DFED3D7A27EE277AFDEEC77A17EE7A
:104A5000902A3EE6FFEE007AB4EEE77AF1EE10FA25
:104A600000F1F280DFED347A27EE277AFDEEC77A87
:104A700017EE902AC2E6FFEE007AB4EEE77AF1EE86
:104A800010FA00F1E980DFED2C7A27EE277AFDEEAF
:104A9000C77A17EE902A62E6FFEE007AB4EEE77A64
:104AA000F1EE10FA00F1D480DFED237A27EE277AB9
:104AB000FDEEC77A17EE903A8FE60022227662B6B4
:104AC000D0F8AC10FFF7F4B80022227662B6D0F826
:104AD0009C10FFF7DDB90022227662B6D0F8A41050
:104AE000FFF74FB90022227662B6D0F89410FFF794
:104AF00069B80022227662B6D0F8A010FFF79DB800
:104B00000022227662B6D0F89810FFF787B90B49D9
:104B1000FFF729BAB4EEE67AF1EE10FA40F11E8101
:104B2000064950E50000FF7F60D7002044DE0020EA
:104B30002CC900207978304200FEFF4E0000018031
:104B4000C749FFF784BAB4EEC67AF1EE10FA40F125
:104B50005481C34911E5C24AFFF7B7B9C049FFF70D
:104B60003CBAFFEE007AB4EEE77AF1EE10FA40F1CB
:104B70003081BB49BBE4B4EEC67AF1EE10FA40F1E5
:104B80008180B74A8FE4B64AFFF739B8B4EEC67AE7
:104B9000F1EE10FA40F1F580B14961E4B049FFF758
:104BA000A2BAAF4AFFF7A1B8B4EEC67AF1EE10FA96
:104BB00040F13781AA4AFFF7D2BBA949FFF707BBEB
:104BC000B4EEC67AF1EE10FA40F1A080A44AFFF7E5
:104BD000E8BBA34AFFF73FB9A14AFFF7EFB8B4EE2D
:104BE000C67AF1EE10FA40F126819D4AA3E4FFEE69
:104BF000007AB4EEE77AF1EE10FA60D598492DE527
:104C00009749FFF7AABA964AFFF734B8B4EEC67AC6
:104C1000F1EE10FA3FD5924AFFF7E5BBFFEE007ABE
:104C2000B4EEE77AF1EE10FA40F10F818C49F0E42E
:104C30008B4B72E58A4B81E5894A37E5884BF0E575
:104C4000874A9FE5864A44E5854AD7E5844B53E584
:104C5000834BC2E5824A16E5814A80E5DFED817A21
:104C600027EE277AFDEEC77A17EE902AFEF74DBFA2
:104C7000DFED7C7A27EE277AFDEEC77A17EE902AD1
:104C8000FFF75FB8DFED777A27EE277AFDEEC77A78
:104C900017EE902A07E4DFED737A27EE277AFDEE10
:104CA000C77A17EE902AFFF79EBBDFED6E7A27EEEC
:104CB000277AFDEEC77A17EE901AFFF759BADFEDA3
:104CC000697A27EE277AFDEEC77A17EE901AC5E4C7
:104CD000DFED647A27EE277AFDEEC77A17EE902A89
:104CE000FEF7D3BFDFED5F7A27EE277AFDEEC77AB6
:104CF00017EE902AFFF76DB8DFED5A7A27EE277A84
:104D0000FDEEC77A17EE902AFFF7B0B8DFED557ABF
:104D100027EE277AFDEEC77A17EE902AFFF741BB00
:104D2000DFED507A27EE277AFDEEC77A17EE901A5C
:104D3000FFF7FBB8DFED4B7A27EE277AFDEEC77A57
:104D400017EE901AFFF71AB9DFED467A27EE277AA9
:104D5000FDEEC77A17EE901AFFF784B9DFED417ABE
:104D600027EE277AFDEEC77A17EE901A2BE4DFEDD7
:104D70003D7A27EE277AFDEEC77A17EE901AFFF7F5
:104D8000BDB9DFED387A27EE277AFDEEC77A17EE48
:104D9000901AFFF765BBDFED337A27EE277AFDEE39
:104DA000C77A17EE901AFEF7E8BEDFED2E7A27EEEF
:104DB000277AFDEEC77A17EE902AFEF7A1BFDFED46
:104DC000297A27EE277AFDEEC77A17EE901AFFF7B9
:104DD0000FB9DFED247A27EE277AFDEEC77A17EEBA
:104DE000901AFFF784BBDFED1F7A27EE277AFDEEDE
:104DF000C77A17EE902AFFF773B8DFED1A7A27EE1D
:104E0000277AFDEEC77A17EE901AFFF7B6BBDFEDF3
:104E1000157A27EE277AFDEEC77A17EE901AFFF77C
:104E2000E1B9DFED107A27EE277AFDEEC77A17EEAB
:104E3000902AFFF794BADFED0B7A27EE277AFDEE82
:104E4000C77A17EE902AFFF776BBDFED067A27EEDA
:104E5000277AFDEEC77A17EE901AFFF7DABB00BF8C
:104E60000000018000FEFF4E30B490F889308B4284
:104E700023D090F88A308B4259D090F88B308B42F7
:104E800000F0888090F88C308B4200F0F78090F82A
:104E90008D308B4200F02C8190F88E308B4200F0E8
:104EA000618190F88F308B4200F0AE8090F89030A6
:104EB0008B4200F0918130BC7047D0ED1D7AF8EE46
:104EC000E77A0022F5EEC07AF1EE10FA80F8892038
:104ED00040F2B6829FEDC27A67EE877AFDEEE77AFE
:104EE00017EE903A002B40F0138272B6BD4AC2ED25
:104EF000077A137662B6D0ED217AF8EEE77AF5EE0E
:104F0000C07AF1EE10FA40F2AA829FEDB57A67EE10
:104F1000877AFDEEE77A17EE903A002B40F0758223
:104F200072B6B14AB1491376D16162B6C3E7D0ED2A
:104F30001D7AF8EEE77A0022F5EEC07AF1EE10FA6B
:104F400080F88A2040F26A819FEDA57A67EE877A21
:104F5000FDEEE77A17EE903A002B00F09C8172B6D6
:104F6000A349CC690A62002C00F0FB8284FAA2F209
:104F7000EFF300852D0100F1D98292FBF3F323B901
:104F8000002CB4BF01234FF0FF334B6201230B769B
:104F900062B648E1D0ED1D7AF8EEE77A0022F5EE30
:104FA000C07AF1EE10FA80F88B2040F261829FED1A
:104FB0008C7A67EE877AFDEEE77A17EE903A002B4F
:104FC00040F0C18172B68B4AC2ED077A137662B6A1
:104FD000D0ED217AF8EEE77AF5EEC07AF1EE10FA2C
:104FE00040F255829FED7E7A67EE877AFDEEE77A92
:104FF00017EE903A002B40F0148272B67E4A7B493D
:105000001376D16162B656E7D0ED1D7AF8EEE77AF5
:105010000022F5EEC07AF1EE10FA80F88F2040F20F
:1050200015829FED6F7A67EE877AFDEEE77A17EECD
:10503000903A002B40F0138172B6704AC2ED077AA5
:10504000137662B6D0ED217AF8EEE77AF5EEC07A03
:10505000F1EE10FA40F215829FED617A67EE877AE1
:10506000FDEEE77A17EE903A002B40F0D48172B64D
:10507000634A5E491376D16162B61CE7D0ED1D7AB2
:10508000F8EEE77A0022F5EEC07AF1EE10FA80F839
:105090008C2040F21F829FED527A67EE877AFDEEF8
:1050A000E77A17EE903A002B40F0688172B6554AC5
:1050B000C2ED077A137662B6D0ED217AF8EEE77A80
:1050C000F5EEC07AF1EE10FA40F2C6819FED447A17
:1050D00067EE877AFDEEE77A17EE903A002B40F004
:1050E000688172B6484A41491376D16162B6E2E6F8
:1050F000D0ED1D7AF8EEE77A0022F5EEC07AF1EEF7
:1051000010FA80F88D2040F2EB819FED357A67EE42
:10511000877AFDEEE77A17EE903A002B40F0C280D6
:1051200072B63A4AC2ED077A137662B6D0ED217AAA
:10513000F8EEE77AF5EEC07AF1EE10FA40F27781F8
:105140009FED277A67EE877AFDEEE77A17EE903AC1
:10515000002B40F0698172B62D4A24491376D16143
:1051600062B6A8E6D0ED1D7AF8EEE77A0022F5EEF9
:10517000C07AF1EE10FA80F88E2040F273819FED34
:10518000187A67EE877AFDEEE77A17EE903A002BF1
:1051900040F0A38072B61F4AC2ED077A137662B65A
:1051A000D0ED217AF8EEE77AF5EEC07AF1EE10FA5A
:1051B00040F26A819FED0A7A67EE877AFDEEE77A20
:1051C00017EE903A002B40F0298172B6124A074937
:1051D0001376D16162B66EE6002380F890306AE6FD
:1051E0007978304244DE00201CC00020000001809D
:1051F000C8C00020DCC6002030DF002040DD0020D9
:1052000060D70020E0D9002030C5002008DF002052
:10521000CCD80020B4C100206CC0002072B69D4BD9
:10522000DA611A7662B6D0ED217AF8EEE77AF5EE19
:10523000C07AF1EE10FA40F221819FED977A67EE85
:10524000877AFDEEE77A17EE903A002B40F0E08087
:1052500072B6924A92491376D16162B62BE672B663
:105260009049CC690A62002C00F08A81002284FAFD
:10527000A2F2EFF300852D0100F1508192FBF3F3D0
:1052800023B9002CB4BF01234FF0FF334B6201233D
:105290000B7662B6D6E672B67E4AC2ED077A137610
:1052A00062B6C0E772B68049CC690A62002C00F091
:1052B000558184FAA2F2EFF300852D0100F14681B9
:1052C00092FBF3F323B9002CB4BF01234FF0FF335B
:1052D0004B6201230B7662B628E772B67349CC693C
:1052E0000A62002C00F0468184FAA2F2EFF30085F6
:1052F0002D0100F1038192FBF3F323B9002CB4BF1D
:1053000001234FF0FF334B6201230B7662B647E770
:1053100072B66749CC690A62002C00F02E8184FACB
:10532000A2F2EFF300852D0100F1F08092FBF3F380
:1053300023B9002CB4BF01234FF0FF334B6201238C
:105340000B7662B6D7E572B65A49CC690A62002C70
:1053500000F00D8184FAA2F2EFF300852D0100F137
:10536000C58092FBF3F323B9002CB4BF01234FF0A7
:10537000FF334B6201230B7662B629E672B64E49C3
:10538000CC690A62002C00F0EF8084FAA2F2EFF3FD
:1053900000852D0100F1D28092FBF3F323B9002C9C
:1053A000B4BF01234FF0FF334B6201230B7662B68B
:1053B00082E672B6414A3A49D0691162884220D0E9
:1053C00080FAA1F4EFF300852D0108D494FBF3F3E8
:1053D0007BB153620123137662B630BC70475D1C0B
:1053E000022D91BF234691FBF3F190FBF3F3CB1A0F
:1053F000EEE72B4B9842B4BF01204FF0FF305062D4
:10540000E8E70023137662B655E572B62C4AD2E778
:1054100072B6224ACFE772B62A4ACCE772B62A4A57
:10542000C9E772B6294AC6E772B6294AC3E772B617
:10543000274B1B4ADA6100221A7662B630BC7047ED
:1054400072B61B4BDA611A7662B654E572B6154B2A
:10545000DA611A7662B6F5E572B6184BE9E772B60C
:10546000174BE6E772B6114BDA611A7662B697E629
:1054700072B6104BDA611A7662B6A9E572B6074BBE
:10548000D7E772B60F4BD4E772B60F4BD1E772B6BF
:105490000E4BCEE7C8C00020797830422CC90020DE
:1054A0000000018040DD002008DF0020B4C10020A2
:1054B00044DE0020DCC60020E0D9002030C50020FA
:1054C0001CC0002060D700206CC0002030DF00200E
:1054D000CCD8002072B62C4BDA611A7662B6EBE5B6
:1054E00072B62A4BDA611A7662B61FE65D1C022D8F
:1054F00092BF134694FBF3F35B4234E75D1C022D2D
:1055000092BF134694FBF3F35B42F6E65D1C022D5B
:1055100092BF134694FBF3F35B4209E75D1C022D37
:1055200092BF134694FBF3F35B42A9E65D1C022D88
:1055300092BF134694FBF3F35B4220E55D1C022D02
:1055400092BF134694FBF3F35B4227E75D1C022DE9
:1055500092BF134694FBF3F35B42B3E60C7662B65C
:10556000E4E50C7662B65EE60C7662B6A4E50C76EF
:1055700062B62DE50C7662B612E60C7662B6BAE437
:1055800000230B7662B65DE5E0D9002008DF00203D
:10559000154BA3FB0131C9090329416323D8F0B599
:1055A0002431DFF860C030F91120DFF85CE00F4FE4
:1055B0000F4E104D104C11481149ACF83220002309
:1055C000CCF82030AEF83220CEF820307A863B621C
:1055D000728633626A862B62628623624286036227
:1055E0004A860B62F0BD70478180808088DC002095
:1055F0006CC8002090DB002028E1002094C300202C
:10560000F4DC0020A4C60020CCDF0020194BA3FB53
:105610000131C909032941632BD8836BDFF870C0BE
:10562000F0B5032B01F124010CBF0123002330F955
:10563000112080F85030DFF85CE00F4F0F4E104D16
:10564000104C11481149ACF832200023CCF820301E
:10565000AEF83220CEF820307A863B627286336212
:105660006A862B6262862362428603624A860B62E6
:10567000F0BD70478180808014C20020A4C8002043
:10568000C8DB002060E10020CCC30020E4C900207A
:10569000A8D9002018E0002006EE901A9FED067AA7
:1056A000FBEECF6AC6EE877AB6EE0C7A77EE877A93
:1056B000C0ED0C7A704700BF00C07F4407EE901A1F
:1056C0009FED0B7AF8EE676AC6EE877AB7EE007A3E
:1056D00077EE877AFDEEE77A17EE903A052BC0ED6C
:1056E000117A03DC00EB83039B694361704700BFC1
:1056F00000004C43104B9FED117AA3FB01310909C7
:1057000007EE901AF8EEE77AF4EEC77AF1EE10FAA7
:1057100003DD0B4A0B4BD36170479FED0B7A0949B0
:10572000074A67EE877AFCEEE77A17EE903A8B42EB
:10573000C2ED077AEED870471F85EB51A655AC46EF
:105740006CC600200000FE7F4B24BE4707EE901A77
:105750009FED7F7AFBEEEB7AF4EEC77AF1EE10FA6A
:1057600000F3AA80DFED7B6A7B4AF4EEE67AF1EE85
:1057700010FA00F1D180B0EE676ABEEEC86AF4EEAE
:10578000C77AF1EE10FA16EE103A82ED076A00F3CE
:10579000CB80F4EEE67A714AF1EE10FA48BF134678
:1057A0009FED6B7A6E4AF4EEC77AF1EE10FAD36190
:1057B00000F387809FED677A6A4BF4EEC77AF1EECB
:1057C00010FA5BBFB0EE677ABEEEC87A634A17EE96
:1057D000102A9FED5F7ADA61F4EEC77AF1EE10FAE3
:1057E00000F3A7809FED5B7A5F4BF4EEC77AF1EE92
:1057F00010FA5BBFB0EE677ABEEEC87A574A17EE72
:10580000102A9FED537ADA61F4EEC77AF1EE10FABE
:105810005CDC9FED507A554BF4EEC77AF1EE10FA4E
:105820005BBFB0EE677ABEEEC87A4C4A17EE102A1C
:105830009FED477ADA61F4EEC77AF1EE10FA7DDC7B
:105840009FED447A4A4BF4EEC77AF1EE10FA5BBF53
:10585000B0EE677ABEEEC87A404A17EE102A9FED86
:105860003C7ADA61F4EEC77AF1EE10FA33DC9FEDA0
:10587000397A404BF4EEC77AF1EE10FA5BBFB0EE26
:10588000677ABEEEC87A354A17EE102A9FED307A55
:10589000DA61F4EEC77AF1EE10FA57DC9FED2D7A5B
:1058A000F4EEC77AF1EE10FA4ED4B0EE677ABEEE9F
:1058B000C87A17EE103A11E02748294A2E4BC361E7
:1058C000D3612848284A2C4BC361D3612748284A12
:1058D000294BC361D361274A274BD3612748284A04
:1058E000A0FB0101490807EE901AF8EEE77AB7EE3F
:1058F000007AF4EEC77AF1EE10FADCBFB0EE677A08
:10590000BEEEC87AD361D8BF17EE103A1D4AC8BFA1
:105910004FF4803353627047F4EEC77A0F4BD36174
:10592000F1EE10FA7FF73CAF0D480E4A124BC361FF
:10593000D3610D480D4A104BC361D3610C480D4A29
:105940000D4BC361D361C9E7044BC7E70A4BC5E7F9
:1059500000FEFF4600FEFFC6E4E1002000000180DB
:1059600064E0002058DB002004E3002044D800203D
:10597000F0E00020ECC200200000FF7FABAAAAAA42
:1059800020DB00206CC6002010B507EE901A2DED2C
:10599000068BB8EE678AF0EE047A28EE278AB3EE1B
:1059A000049AB4EEC98AF1EE10FA00F1C580DFED79
:1059B000C09AB4EEE98AF1EE10FA40F38D80BD4A48
:1059C000BD4CBE4B9461B4EEC98AF1EE10FAD361BE
:1059D00000F14E81F3EE047AB94AB4EEE78AF1EEB3
:1059E00010FA9461D36100F1AF80DFEDB17AB4EECB
:1059F000E78AF1EE10FA40F3D280B04BAE4CB14AD8
:105A0000F3EE047AB4EEE78AF1EE10FA9461D36112
:105A100000F13681DFEDA67AB4EEE78AF1EE10FAF6
:105A200040F3D280A54BA44CA74AF3EE047AB4EE1F
:105A3000E78AF1EE10FA9461D36100F18D80DFED19
:105A40009C7AB4EEE78AF1EE10FA40F3FC809B4BAF
:105A5000994C9E4AF3EE047AB4EEE78AF1EE10FA1E
:105A60009461D36100F11481DFED917AB4EEE78A9D
:105A7000F1EE10FA40F3D280904B8F4C944AF3EE43
:105A8000047AB4EEE78AF1EE10FA9461D3616BD434
:105A9000DFED877AB4EEE78AF1EE10FA40F3A980E1
:105AA000864B854C8B4AF3EE047AB4EEE78AF1EE2E
:105AB00010FA9461D36100F1F480DFED7D7AB4EEE9
:105AC000E78AF1EE10FA55DD7C4B7B4C824ABDEC47
:105AD000068B9461D36110BD9FED80AADFED808AB3
